:0200000490006A
:1000000028F10020C9030090418A0090457B0090B0
:10001000C1890090FB0F0090D9A50090000000005E
:10002000000000000000000000000000DF910090D0
:10003000FD0F009000000000A58C009061920090E0
:10004000E3030090E3030090E3030090E3030090D8
:10005000E3030090E3030090E3030090E3030090C8
:10006000E3030090E3030090E3030090E3030090B8
:10007000E3030090E3030090E3030090E3030090A8
:10008000E3030090E3030090E3030090FD21009060
:1000900009220090E3030090E3030090E303009043
:1000A000E3030090E3030090E3030090E303009078
:1000B000E3030090E3030090E3030090E303009068
:1000C000E3030090E3030090E3030090E303009058
:1000D000E3030090E3030090E3030090E303009048
:1000E000E3030090E303009000000000E3030090AE
:1000F000E3030090E3030090E3030090E303009028
:10010000E3030090E3030090E3030090E303009017
:10011000E303009001980090E3030090E303009054
:10012000E3030090E3030090E3030090E3030090F7
:10013000E3030090E3030090E3030090E3030090E7
:1001400000000000000000000000000000000000AF
:10015000E3030090E3030090E3030090E3030090C7
:10016000E3030090E3030090E3030090E3030090B7
:10017000E3030090E3030090E3030090E3030090A7
:10018000E3030090E3030090E3030090E303009097
:10019000E3030090E3030090E3030090E303009087
:1001A000C57C0090E303009025210090E3030090BC
:1001B000E3030090E3030090E3030090E303009067
:1001C000E3030090E3030090E3030090E303009057
:1001D000E3030090E3030090E3030090E303009047
:1001E000E3030090E3030090E3030090E303009037
:1001F000E3030090E3030090E3030090E303009027
:10020000E3030090E3030090E3030090E303009016
:10021000E3030090E3030090E3030090E303009006
:10022000E3030090E3030090E3030090000000006C
:10023000E3030090E303009000000000E30300905C
:10024000E3030090E3030090E3030090E3030090D6
:10025000E3030090E3030090E3030090E3030090C6
:10026000E3030090E3030090E3030090E3030090B6
:10027000E3030090E3030090E3030090000000001C
:10028000E3030090E3030090E3030090000000000C
:1002900000000000E303009000F002F800F084F892
:1002A0000AA090E8000C82448344AAF10107DA45D1
:1002B00001D100F079F8AFF2090EBAE80F0013F09F
:1002C000010F18BFFB1A43F00103184774D4040050
:1002D000A4D404000A444FF0000C10F8013B13F0C2
:1002E000070408BF10F8014B1D1108BF10F8015B8F
:1002F000641E05D010F8016B641E01F8016BF9D182
:1003000013F0080F1EBF10F8014BAD1C0C1B09D1D8
:100310006D1E58BF01F801CBFAD505E014F8016B4A
:1003200001F8016B6D1EF9D59142D6D370470000DC
:100330000023002400250026103A28BF78C1FBD8EE
:10034000520728BF30C148BF0B607047692900F0D1
:100350006F81642900F06C81752900F069816F2933
:1003600000F00082782900F025820368DB0928BFAD
:1003700041F08001632900F0EA84732900F0EF84E2
:10038000E32900F00D85002070471FB534F032FFDF
:1003900000F0EEFD04000020002134F015FF401CA9
:1003A00060601FBD10B510BD00F0BDFD1146FFF728
:1003B000ECFF2DF0C5FE00F0EDFD03B4FFF7F2FFFA
:1003C00003BC0CF0DDF800000948804709480047ED
:1003D000FEE7FEE7FEE7FEE7FEE7FEE7FEE7FEE7F5
:1003E000FEE7FEE704480549054A064B7047000052
:1003F000299300909902009028E7002028F100201E
:1004000028E9002028E90020704753EA020C00F098
:1004100069802DE9F04B4FF00006002B1FBFB3FAA7
:1004200083F503FA05F424FA05F65E4012BF16437D
:10043000B2FA82F502FA05F4C5F120051EBF22FAD0
:1004400005FC44EA0C04203556EA044C4FEA1444F7
:1004500018BF641C4FF000084FF00009904271EB88
:10046000030C39D3002919BFB1FA81F701FA07F655
:10047000B0FA80F700FA07F6C7F120071EBF20FA8E
:1004800007FC46EA0C062037B6FBF4FCA7EB050791
:10049000103F07F01F0BCBF120060CFA0BFB2CFAD8
:1004A00006F644BFB3460026202FA4BF5E464FF099
:1004B000000B5BEA060C08BF4FF0010B19EB0B09B0
:1004C000ABFB027C48EB0608C01B06FB02CC0BFB17
:1004D00003CC71EB0C01C1E70B460246414648468E
:1004E000BDE8F08B13B54FF000004FF00001AFF303
:1004F0000080BDE81C4070470FB4044910B503AA42
:10050000029800F031FC10BC5DF814FBB40200202E
:100510000FB41CB5074B06AA7B44694600900598AA
:1005200000F0EBFB0020694600F0FAFB1CBC5DF814
:1005300014FB0000050800000FB41CB50C0007AA4E
:10054000009001D02044401E074B7B446946019037
:10055000069800F0D2FB002C03D06946002000F082
:10056000DFFB1CBC5DF814FBDD07000070B5044622
:1005700085690068C10601D5302600E02026C00745
:1005800007D070BDD4E9012130469047206A401C55
:1005900020626D1EF6D570BD70B504468569007881
:1005A000C00707D170BDD4E9012120209047206AFF
:1005B000401C20626D1EF6D570BD09684A0501D544
:1005C00040B27047C905FCD500B2704709684A05BA
:1005D00001D5C0B27047C905FCD580B2704770B56F
:1005E0000C460546012A05D02878800600D5EA6920
:1005F000002302E0012305E05B1C934202D2E05C91
:100600000028F9D1A869E618C01AA861286A184418
:1006100028622846FFF7AAFF04E0D5E9012114F873
:10062000010B9047B442F8D32846FFF7B5FF70BDE1
:100630002DE9F0410646002410687529314616A5BB
:1006400010D0FFF7BAFF002802DA404213A507E0F6
:1006500031688A0701D512A502E0490704D511A522
:10066000012401E0FFF7B2FF00210A2206F124076E
:1006700009E0B0FBF2FCB0FBF2F302FB1C003030EF
:1006800078541846491C0028F3D123462A463046A0
:10069000BDE8F04100F0D2BA000000002D000000DB
:1006A0002B000000200000002DE9FF5F15468A4660
:1006B0000446DFF8AC80F8440027D8E900103E4635
:1006C000CDE9001010E03AF816106A4602A800F0D2
:1006D000ABFB411C07D02178890603D5E2693918A4
:1006E00091420DD80744761C2078800602D5E06937
:1006F000B84205DDAE42E6DB3AF816000028E2D14A
:10070000A069C01BA0612046FFF730FFD8E90010A8
:10071000CDE90010002017E03AF818106A4602A848
:1007200000F082FBB0F1FF3F81460BD000250DF1B8
:10073000080B05E0D4E901211BF8050090476D1C6A
:100740004D45F7D308F10100B0428046E4DB206A52
:10075000384420622046FFF71FFFBDE8FF9F0000DE
:100760009EC1040070B5044621461068FFF72EFFB5
:10077000002104F1240505E000F007023032C00832
:100780006A54491C0028F7D12068002307A20507F6
:1007900007D5800600D421B1E069012304A2401EE0
:1007A000E0612046BDE8704000F048BA000000005B
:1007B0003000000070B504460D4621461068FFF772
:1007C00005FF2188090502D50F4A7A4402E00E4A46
:1007D0007A440E32002104F1240305E000F00F06F4
:1007E0000009965D5E54491C0028F7D1207800234B
:1007F000000704D5702D02D009B102231132204622
:10080000BDE8704000F01ABA92C004002DE9F05F14
:10081000894604464FF0000ADFF874B1FB44C0F883
:1008200020A02046E1688847002874D0252806D0FB
:10083000D4E901219047206A401C2062F1E700269C
:100840005F462046E16888472028054607DB312DB2
:1008500005D2781910F8200C08B10643F1E7B0076B
:1008600001D526F00406C4F81CA00027C4F818A07F
:100870002A2D09D0284609F035FF38B304EB870844
:10088000303DC8F8185019E059F8041B204604EB15
:1008900087029161E1688847012F054618D1E06918
:1008A000002820DA26F020061DE0D8F8180000EB1A
:1008B000800005EB40003038C8F818002046E16899
:1008C0008847054609F00EFF0028EED1012F0AD017
:1008D0002E2D08D12046E16888477F1C0546022F4F
:1008E00046F02006C4DBA069002803DA404246F047
:1008F0000106A061F00701D026F010066C2D0BD088
:10090000682D09D04C2D39D06A2D35D0742D35D0B5
:100910007A2D33D016E038E0E1682F46204688472C
:10092000B842054609D16C2F26D04FF48060E168AB
:10093000064320468847054604E06C2F1AD04FF442
:10094000807006430DB3A5F14100192802D8203567
:1009500046F400664A462946204626604E46FFF782
:10096000F5FC80B101280BD0F61D26F0070000F140
:10097000080956E74020E4E78020D8E70020D6E7C2
:1009800006F104094DE7284652E7206ABDE8F09FCA
:1009900068C0040070B5064600F04CF904680546CE
:1009A00030460A22002100F007FA2C6070BD40EAB0
:1009B0000103024630B59B0710D14FF0013400E02F
:1009C00008C208C91D1B9D4315EAC41FF8D013F0C7
:1009D000FF0102F8011B0DD01B0AF8E711F8013BDB
:1009E000002B02F8013B05D011F8013B002B02F867
:1009F000013BF3D130BD10B5431C02E010F8011BE0
:100A000071B18107FAD14FF0013202C88C1A8C43C0
:100A100014EAC211F9D0C01A0A0603D0C01E10BDD4
:100A2000C01A10BD0A0401D0801E10BD0902FCD0FE
:100A3000401E10BD032A40F2308010F0030C00F07D
:100A4000158011F8013BBCF1020F624498BF11F808
:100A500001CB00F8013B38BF11F8013BA2F10402C1
:100A600098BF00F801CB38BF00F8013B11F0030339
:100A700000F02580083AC0F0088051F8043B083A9D
:100A800051F804CBA0E80810F5E7121D5CBF51F83F
:100A9000043B40F8043BAFF30080D20724BF11F8B9
:100AA000013B11F801CB48BF11F8012B24BF00F81E
:100AB000013B00F801CB48BF00F8012B704710B58F
:100AC000203AC0F00B80B1E81850203AA0E8185046
:100AD000B1E81850A0E81850BFF4F5AF5FEA027C07
:100AE00024BFB1E81850A0E8185044BF18C918C076
:100AF000BDE810405FEA827C24BF51F8043B40F817
:100B0000043B08BF7047D20728BF31F8023B48BFFB
:100B100011F8012B28BF20F8023B48BF00F8012B39
:100B2000704702F0FF0343EA032242EA024200F068
:100B300002B84FF000020429C0F0128010F0030C3C
:100B400000F01B80CCF1040CBCF1020F18BF00F8C0
:100B5000012BA8BF20F8022BA1EB0C0100F00DB86F
:100B60005FEAC17C24BF00F8012B00F8012B48BFCD
:100B700000F8012B70474FF0000200B51346944671
:100B80009646203922BFA0E80C50A0E80C50B1F1E5
:100B90002001BFF4F7AF090728BFA0E80C5048BFF9
:100BA0000CC05DF804EB890028BF40F8042B08BF97
:100BB000704748BF20F8022B11F0804F18BF00F893
:100BC000012B70474FF0013C50F8042B51F8043BC7
:100BD0009A4215D1A2EB0C03934313EACC130BD129
:100BE00050F8042B51F8043B9A4209D1A2EB0C03B4
:100BF000934313EACC13E7D04FF00000704700BFD7
:100C0000D01A01BAB1FA81F101F0180122FA01F00B
:100C1000CB40C1F12001DBB2C0B2C01A2CFA01F303
:100C2000D11A914311EAC311E6D17047704770475A
:100C30007047704700487047C4E600202DE9F04730
:100C40000D4699469246044600F12408016888063C
:100C500004D5E06921F01001216000E00120A842E4
:100C600001DD471B00E00027A1697A1902EB0900AA
:100C7000081AA0612078C00602D42046FFF776FC4F
:100C8000002608E0D4E901211AF806009047206AFE
:100C9000401C761C20624E45F4DB2078C0060AD545
:100CA0002046FFF763FC06E0D4E90121302090479D
:100CB000206A401C2062381EA7F10107F4DC07E01F
:100CC000D4E9012118F805009047206A401C2062F1
:100CD000281EA5F10105F3DC2046FFF75DFC207816
:100CE000000602D50220BDE8F0870120FBE70000E6
:100CF00001694A1C02610878704700B58FB0CDE9E0
:100D000001310021059105497944CDE903101146CF
:100D10006846FFF77BFD0FB000BD0000E5FFFFFF59
:100D20000A6802F8010B0A607047D1E900239A4271
:100D300002D2531C0B601070704710B5436913B199
:100D4000AFF3008001E0FFF74AFC012010BD1278EC
:100D500000F124010A7000224A700122EDE71168B7
:100D60004FF0FF32E9E70000074B70B50D467B44BA
:100D7000FFF7C3FF0446284600F0D1F810B14FF04A
:100D8000FF3070BD204670BDA766010010B54369F5
:100D900013B1AFF3008001E0FFF786FC012010BD26
:100DA000128800F1240182840022C2840122EDE72E
:100DB00011684FF0FF32E9E72DE9F04791460F4601
:100DC00080460446002614F8015B2DB100F050F86F
:100DD0000068405DC007F6D12B2D02D02D2D18D014
:100DE000641E4A463946204600F04AF827B1396861
:100DF000A14201D1C7F800804FF0020471050BD564
:100E00004042002803DDFFF715FF0460A007BDE89E
:100E1000F08746F48066E4E70028F8DAFFF70AFF77
:100E200004606FF00040F2E770B516460C460546C8
:100E300000F01EF8036893F80101012806D0FF2C8A
:100E40000FD8185D68B101202C7070BDD3F8070170
:100E50003246214603F2071303442846BDE870409A
:100E600018474FF0FF3070BD00487047C4E60020BF
:100E700010B500F07DF8001D10BD00BF4D4303000C
:100E80002DE9F05F824615468B4600270AF10104E2
:100E9000B9460078302801D09DB113E014F8010B59
:100EA0000127782803D0582801D045B10AE00DB1B8
:100EB000102D07D1002714F8010B102502E008259A
:100EC00000E00A250026B0460EE005FB080005FB01
:100ED00006F101271FFA80F801EB1046B6F5803FB6
:100EE00000D3B94614F8010B294600F045F8002854
:100EF000EBDABBF1000F05D00FB1641E00E05446E1
:100F0000CBF80040B9F1000F06D0FFF793FE0221A5
:100F10000160C81EBDE8F09F48EA0640FAE7007B82
:100F200000F0800070477546FFF79EFFAE46050053
:100F30006946534620F00700854618B020B5FFF7F4
:100F400051FABDE820404FF000064FF000074FF087
:100F500000084FF0000B21F00701AC46ACE8C009D7
:100F6000ACE8C009ACE8C009ACE8C0098D467047E0
:100F700000487047E4E600203A2800D2303820F0DC
:100F80002002412A01D3A2F13700884201D34FF059
:100F9000FF30704710B50446AFF300802046BDE82F
:100FA0001040FFF70ABA000070B5054600F02CF8B3
:100FB000B0F5805F044604D30246294602A0FFF73D
:100FC0009BFA204670BD00004144373834335F72CD
:100FD0006561645F76616C7565282530325829201B
:100FE0003D2025640D0A000010B532F091FF09F094
:100FF0007BFABDE8104000F0ADB8FEE770477047DF
:10100000500728E80100000771B5194E4FF400653C
:101010000022294681B0304603F059FF154A0123CA
:1010200015484FF47A7401A9009405F0B1FE58B93F
:1010300006200EF0A7F80F4A02230F48A2F108017C
:10104000009405F0A5FE08B100207CBD01222946D0
:10105000304603F03CFF07484FF6FF7103784278B3
:1010600003F07F0001EA00201044C0087CBD0000AE
:10107000000802589C020020CC09002070B5002412
:1010800006F06AFF2F4A0521204606F0A9FF2E4CE4
:1010900001200103627806F0A3FF2278022041F2CA
:1010A0000F0106F09DFFE278032041F2010106F0F6
:1010B00097FF6279042041F2020106F091FF228E2F
:1010C000052041F2030106F08BFFA28E062041F2BB
:1010D000040106F085FF1D4D072041F20D0195F931
:1010E000072006F07DFF2279082041F2050106F075
:1010F00077FFA279092041F2060106F071FF628EA6
:101100000A2041F2070106F06BFFE28E0B2041F24C
:10111000080106F065FF95F908200C2041F20E0148
:1011200006F05EFF0A490D200A7841F2100106F030
:1011300057FF0E200D22002106F052FF06F034FF6B
:10114000012070BD55AAA55A0803002060E60020C2
:101150000C050020F8B506F0FFFE2C4D00262C4FA4
:101160006946304606F004FF009A0446014629A06D
:10117000FFF7C2F996B1002C19D0601C17D0A4F566
:101180008054112C3DD2DFE804F0181B1E21242AC4
:101190002D30333C3C3C3C2736153900052C03D11F
:1011A00026490098884203D025A0FFF7A5F9F8BD8D
:1011B0000126D5E70098287023E00098687020E0A9
:1011C0000098E8701DE0009868711AE00098288681
:1011D00017E00098A88614E00098F87111E00098D4
:1011E00028710EE00098A8710BE00098688608E06E
:1011F0000098E88605E00098387202E020490098DF
:101200000870761CB6F5007FAAD3F8BD080300204D
:1012100060E600205245414420636F6E6669673A7C
:1012200020706964203D20253038582C206461747A
:1012300061203D2025640D0A0000000055AAA55A32
:101240004150505F434F4E4649475F6C6F61643A6F
:10125000206461746120696E2077726F6E6720660A
:101260006F726D6174206F72206E6F2064617461A3
:101270002062652073617665642E2E2E0D0A0000B3
:101280000C0500202DE9FE4F07460C46017814207E
:1012900002904FF03208B7F93E0002297E8E4FF0DF
:1012A000030A4FF0020905D03D8EB7F93A10CDE997
:1012B000001002E035460090019000EE105AAC4854
:1012C000B8EE400A2EF05EFC00EE106AA948B8EEB7
:1012D000400A2EF057FCB4F914100198DFF898B2C8
:1012E000814210DC9BF80110584661B10021417029
:1012F0000220CBF8041007F02BFC002020820146CE
:10130000012000F079FEB4F912100098814210DC3F
:101310009BF80010584661B1002101700120CBF804
:10132000081007F015FC0020E0810146022000F0C3
:1013300063FE91481830C078002872D08E4818306B
:101340008078C0076DD0009904F11200B4F9122022
:101350000A3100908A420EDD854907F0A9FB9BF80F
:101360000010584639B90121017002990120CBF8CB
:10137000081007F0EDFB9BF80000012804D00228BC
:1013800032D003285ED14FE0009904F10E0006F040
:101390004DFC80B178790028DBF8080022D0401E8F
:1013A00090FBF9F1CBF8101090FBF9F1CBF80800A5
:1013B000022000F021FEB4F91200A84242DB022014
:1013C0008BF80000DBF8081091FBF0F000EE100A3B
:1013D0006748F8EEC00A00EE101AB8EEC00A07F02F
:1013E00043FC2FE0401CDBE763490220009A0831F0
:1013F00007F028FB20B1DBF80810022000F0FCFD0C
:10140000B5FBFAF0B4F9121088421BDD03208BF80B
:101410000000787930B16FF03101022000F0ECFD6E
:1014200010E028E04146F8E7B5FBFAF0B4F91210F5
:10143000884207DACBF8088001218BF800100120E0
:1014400007F086FB4C4818300179E1B381788907B1
:1014500039D5B0F93E1004F11400B4F914200A3162
:1014600000908A4215DD434907F022FB9BF80110EA
:10147000584631B10DE000208BF80000CBF8080091
:10148000DDE70121417002990220CBF8041007F03A
:101490005FFB9BF801005D46012813D002283FD076
:1014A000032862D1B6FBFAF0B4F9141088425CDA72
:1014B000C5F8048001218BF801100220BDE8FE4F21
:1014C00007F046BB00E04AE0009904F1100006F086
:1014D000ADFB70B1B879002868681FD0401E686005
:1014E00090FBF9F0E8600120696891FBF9F100F0E8
:1014F00083FDB4F91400B04237DB0220687095ED2B
:10150000010AB0EE001ABDE8FE4FF8EEC01A194805
:10151000B8EEC00AC1EE810A07F0A6BB401CDEE7A8
:1015200015490120009A091D07F08CFA18B1696865
:10153000012000F061FDB6FBFAF0B4F91410884206
:1015400013DD03206870B87938B16FF0310103B052
:101550000120BDE8F04F00F04FBD4146F7E7002005
:101560008BF80100CBF80400A7E7BDE8FE8F000070
:10157000A0E600207CE60020F002002001483C218B
:1015800005F038BE540A0020F0B5294E0022402153
:1015900087B0304603F09BFCC82002F079FD0122A1
:1015A0003046402103F093FCC82002F071FDBA20C0
:1015B00016F0FAFF1F4F4FF000051F4CA0B1282076
:1015C00016F0F2FF90B1E5701CA0E178FEF794FFF1
:1015D00000F0B0F8207100F0C3F8C2B26271217956
:1015E0001CA0FEF789FF0CE0BA2000E02820B870AC
:1015F000E070E9E706A905A800F046F8642002F0CB
:1016000047FD2021304603F055FC0028F2D001268A
:101610006946F0028DE86100154803F035FB4FF68E
:10162000FF70E08020812670657007B0F0BD00007B
:1016300000100258A8E50020B802002047543931B4
:10164000312041444452455353205B253032585D8C
:101650003A2000004944203D20253038582C20569F
:10166000455253494F4E203D20253034580D0A0035
:10167000000C0258034AD388038010890880012097
:1016800070470000B80200202DE9F041082288468A
:101690002249054648F24E1000F06EFF1F49002017
:1016A000012620390F46087016F0FAFF07F14000B6
:1016B000807816F0CBFF17F023F8812016F0C6FFD4
:1016C00017F01EF84E2016F0C1FF17F019F800248D
:1016D000385D16F0BBFF17F013F8641CE4B2B44297
:1016E000F6D316F0F7FF0D484FF4F073C278817807
:1016F0000479407901EB02218AB29A4204EB00207E
:1017000081B200D91A464FF48870814200D901464F
:101710002A800020A8F80010BDE8F08188E50020AC
:101720000348007808B1002070470120704700008E
:10173000B80200200949042248F2401010B500F018
:101740001BFF0648C17884784278037804EB0120B7
:1017500002EB002003EB002010BD000088E5002014
:1017600008B50222694648F2441000F005FF9DF8D2
:1017700001109DF8000000EB012080B208BD0000C0
:1017800070B5154CA078401CC0B2A070052817D3C6
:10179000124800254FF40061A57003F08BFB2178FF
:1017A00081420ED06178491CC9B26170052909D304
:1017B00065700128207005D14FF6FF70E080208110
:1017C00070BD65700028FBD10349BDE87040083149
:1017D000881EFFF759BF0000B8020020000C025815
:1017E000002804484FF4807101D0012200E000225B
:1017F00003F06DBB00080258FF22054810B59102A6
:10180000FFF78FF9BDE8104002A0FEF775BE00009B
:10181000000000244C5444435F696E6974202E2EEE
:101820002E2E2E2E2E2E2E2E0D0A000002480121C5
:1018300045F6A52205F0BEB82009002001A0FEF75C
:101840005BBE0000534452414D2077696C6C206EA2
:101850006F74206265207573652E2E2E2E0D0A0082
:1018600001A0FEF749BE0000534452414D2074656B
:101870007374206661696C65642C6265636175735D
:1018800065206E6F742075736520746865207364BD
:1018900072616D0D0A0000000C4A10B5D388A3F5E3
:1018A0007F44FF3C03D0834203D9181A02E0002092
:1018B00010BDC01A83B21089884201D9401A00E0D5
:1018C000081A80B2184480B210BD000050020020F7
:1018D000034A12780AB1FFF7CDBE00F09BB80000B2
:1018E000BB0200200348007808B1FFF719BF00F0E1
:1018F00099B80000BB0200200348007808B1FFF748
:101900003FBF00F095B80000BB02002010B500F00A
:1019100081F9FFF739FE04480078002803D1BDE8BB
:10192000104007F02FBE10BDBB020020154800225A
:1019300010B540F2FF11C0F80822C0F80422C0F828
:101940000022C0F80C12352003F062FD0022352081
:10195000114603F06BFD0C48102201680B6843F040
:1019600010030B600068026212010849064805F086
:10197000F5FFBDE81040064800224FF4806103F0F7
:10198000A6BA000048E30020300B002048E1002008
:10199000001802582DE9F043CBB04FF49671684619
:1019A000FFF7E9F81848D0F80842002C29D005467E
:1019B0000146E846D5F80C62D5F80002D1F80032AD
:1019C000771C00EB0409B945194402D82246404669
:1019D00009E0371A40467F1C3A46FFF72BF8E21B16
:1019E000294608EB0700FFF725F80022C5F8082272
:1019F00009EA060021466A46C5F8000203A0FEF780
:101A00007BFD4BB0BDE8F08348E3002025645F5FB9
:101A100025730A00024AD388038010890880704722
:101A200050020020014880787047000050020020DA
:101A300070B51E4CE078401CC0B2E0700A2818D97E
:101A40000026E670354607F0A3FE012800D10125E7
:101A5000A07885420ED03DB12079401CC0B22071E3
:101A6000052808D3A57006E0A5704FF6FF70E0804A
:101A7000208170BD2671A0780128FAD1002007F0DE
:101A800017FE0A4D0C35E98AA889FFF705FF1E28C5
:101A900005D96079401CC0B260710328E9D3A889D8
:101AA000E080E88A2081667170BD0000500200204D
:101AB00010B5FFF7A1FEFFF739FFFFF7BFFE06F0F5
:101AC00027FAFFF723FF0CF02FF9FFF757FDFFF779
:101AD000C7FE21F02FFC28F0ADFBBDE8104028F038
:101AE000CBBB00002DE9FE4F1AA00026006800962F
:101AF000CDE901604FF47A7002F0CAFADFF858902D
:101B0000002402AD4FF0120809F10E074FF0010A50
:101B1000009601220196082199F801008DF8000035
:101B2000285D8DF80100F88A8DF802008DF8048098
:101B3000030A68468DF803308DF806A000F050FBCC
:101B4000285D002106F060FF641CE4B2022CDFD3A4
:101B5000BDE8FE8F02010000C602002070B586B00D
:101B6000064618216846FFF706F8274C0025684608
:101B7000216A49B3A169182201EB410104EBC101BB
:101B8000FEF79DFFA069D4E90812401C491E21629E
:101B900010401E4AA061009B101F1D49B3F5817FB4
:101BA00016D0A3F58074013C07D19DF8103052790E
:101BB000934202D1059A42808D8196B1B0F902001C
:101BC00000281ADD02461AE006B04FF0000070BD92
:101BD0009DF8103052799342EFD1059A02804D81E1
:101BE000EBE7B0F90020002A00DC52424A82B0F94B
:101BF0000200002805DC404203E0C0F100024A82F6
:101C0000F9DD8882E0E7000010E60020C60200202F
:101C100060E600200F4810B586B0016841F0100161
:101C200001600068112100220B4C00F010000590AB
:101C3000022310208DE80F006946204603F024F8A7
:101C4000202069460090204603F01EF816F042FD61
:101C500006B010BDE04402580010025870B586B0BE
:101C600016460C46054618216846FEF784FF002CF0
:101C700046D0E068000C0390206800210090684680
:101C800004E04318725C491CC9B21A74039A8A4270
:101C9000F7D81C48854217D11B4C6946D4E9082067
:101CA000401C824210D0E06900EB400004EBC00011
:101CB00090F800F01822FEF702FF1C3407CC401CFD
:101CC0001040491C44E903011048854218D10E4CCC
:101CD00069465034D4E90820401C824210D0E069A3
:101CE00000EB400004EBC00090F800F01822FEF773
:101CF000E6FE1C3407CC401C1040491C44E903019B
:101D000006B070BD04070020C0E50020A407002035
:101D10001CB5002200928DF80010022101926A4643
:101D20008DF80100002000F050F81CBD7CB50025A6
:101D30000C4601AB4021CDE9003500F5C0601346EB
:101D4000224600F01CF87CBD2DE9FC4100250DF178
:101D5000040E089C00F5C06001958DF80440260A29
:101D60008DF80560270C8DF806704FEA146C8DF81D
:101D700007C0CDF800E000F002F8BDE8FC817CB5BA
:101D80000546144600200090260A069A8DF8001099
:101D90008DF801408DF8026001908DF803301078C5
:101DA0008DF8040050788DF8050090788DF80600C5
:101DB000D0788DF80700012002F06AF908212A4640
:101DC00068460BF0BBFE00207CBD7CB505460C468A
:101DD0000020694603460090019003E0D65C581C41
:101DE000CE54C3B2A342F9D3012002F051F92A46DE
:101DF000214668460BF0A2FE00207CBD2DE9F04391
:101E000087B018216846FEF7B6FE3D4C00256846AF
:101E1000216A002931D0A169182201EB410104EBAC
:101E2000C101FEF74CFEA06940F28256D4E90812C7
:101E3000401C491E21621040A0610099314889B2BE
:101E40009DF810409DF813308229BDF8112010D064
:101E5000812940F2815C40F2027840F201790FD092
:101E6000B14246F26C074FF00A061BD1432C0CD04E
:101E700029E0BDF81010491C018107B0BDE8F083CE
:101E8000BDF81010491C4181F7E7BA421BD1D3B904
:101E90008581059909B2002900DC494291FBF6F1E0
:101EA0000182EAE761450ED1432C19D1BA4217D11C
:101EB000B3B9C581059909B2002900DC494291FBFB
:101EC000F6F14182D9E741450AD100210846FFF7E2
:101ED0001FFF0321022000F066F8012102200BE021
:101EE0004945CAD100210846FFF712FF032101200E
:101EF00000F059F80121084600F098F8BDE700000D
:101F0000C0E500200803002070B514460D460646C3
:101F1000042002F0BDF8224629463046BDE8704054
:101F20000BF00CBE08B50022B323009240F25632EB
:101F30008DF800308DF8011003218DF80200024861
:101F400003686846984708BD480300200649097899
:101F500029B1064902464B690121AB2018470022EE
:101F600046F26C01FFF7E2BEEE02002048030020BB
:101F700008B5002346F2830200912321FFF7E4FE17
:101F800008BD08B5002346F2400200912B21FFF75F
:101F9000DBFE08BD08B5002346F284020091232130
:101FA000FFF7D2FE08BDF8B500230C46064646F200
:101FB000600200912F21FFF7C7FE032C4FF47A75C2
:101FC0000BD0012C17D129463046FFF7D1FF294607
:101FD0003046BDE8F840FFF7DDBF29463046FFF741
:101FE000C7FF29463046FFF7D5FF3046BDE8F84029
:101FF000002100F001B8F8BD0A460A4908B5097881
:1020000039B109490B6901B0014610B25DF804EB22
:10201000184700230092232146F2FF02FFF794FEA7
:1020200008BD0000EE0200204803002010B5044661
:102030000E48007848B109B1012000E000200C49A9
:10204000CA682146BDE81040104700294FF006013C
:1020500007D02046FFF795FF07212046FFF791FFA5
:102060000F212046BDE81040FFF78BBFEE02002095
:1020700048030020294870B50078E8B30221012008
:10208000FFF750FF01210846FFF74CFF244C0222C6
:102090000A21104663689847636801220A210220DA
:1020A0009847636802220121032098476368012250
:1020B000032011469847636802220B204FF4FA650B
:1020C00029469847636801220B2029469847636890
:1020D00002220C2041F28835294698476368012284
:1020E0000C202946984701210220FFF79FFFBDE8F9
:1020F00070400121084600E001E0FFF797BF002192
:102100000846FFF705FE03210220FFF74CFFBDE85C
:10211000704003210120FFF746BF0000EE020020BF
:1021200048030020014801F0CDBB00009C060020C0
:102130000F4810B500780BF04FF80E4C2078FFF7E1
:102140000DFD606A0A2812D3A4F11800002241692B
:10215000491C4161626220780BF010F8201F06F0E4
:1021600031FC20460449BDE81040FFF78BB810BD94
:10217000EE0200200803002060E60020094BDA8E02
:10218000002A0DD0012901D0002104E030B15142D4
:10219000987900B149420120FFF72EBF1146F7E7B9
:1021A000704700000803002000210120FFF724BF32
:1021B00001460120FFF73ABF1CB50022A023009280
:1021C0008DF800308DF8011008218DF80220019261
:1021D00040F256328DF803006846FFF795FE1CBDAD
:1021E00010B528B121B1C9B20BF044FD002010BDDB
:1021F0004FF0FF3010BD72B6FEE70000014802F05C
:102200002BB9000004070020014802F025B90000A6
:10221000A4070020F0B503684FF6FC716D4C426BCB
:10222000D3F884508D4345EA8205C3F8845003688F
:1022300053F8845F068F25F47F0545EA06451D6047
:10224000836B654D9F180268D2F888308B4343EA50
:102250008703C2F88830026852F8883F868F23F4DB
:10226000FE0343EA06431360066856F8A03FC26BBC
:102270008B4307EB420243EA82033360076857F857
:10228000A03FB0F8406023F4FE0343EA06433B60FE
:10229000D0E9103603FB06220368D3F8B0608E4302
:1022A00046EA8206C3F8B0600368B0F84860D3F825
:1022B000B07027F4FE0747EA0646C3F8B060D0E9DD
:1022C0001267036806FB0722D3F8AC608E4346EA28
:1022D0008206C3F8AC60D0E91467036806FB0722E6
:1022E000D3F8F0608E4346EA8206C3F8F0600368D4
:1022F000B0F85860D3F8F07027F47C1747EA064628
:10230000C3F8F0600368876D53F8C06F02EB4702B3
:102310008E4346EA820119600168B0F85C20D1F86A
:10232000C03023F47C1343EA0242C1F8C0200168A4
:1023300090F86020D1F8C03023F07C5343EA026269
:10234000C1F8C020416B04EB8101C166826B01EBD7
:1023500082020267C36B02EBC3024267D0E910340A
:10236000634302EB83028267D0E91234634302EBDA
:102370008302C267D0E91434634302EB8302C0F8DE
:102380008020836D02EBC303C0F88430C46D826E7D
:10239000544303EB8403C0F88830046E544303EBCA
:1023A0008402C0F89020AA420AD9D0F89C200321C8
:1023B00042F02002C0F89C2080F898100120F0BD67
:1023C000002200E004C1D0F890308B42FAD80020FF
:1023D000F0BD000000AC0040FCD30040F0B58E68BA
:1023E0000C69D1E9005744EA0604DFB145F08045A5
:1023F0002C43866ED1E906C54F695E4391F82030C3
:1024000045EA0C05D0F884E00020D1F80CC047EA7A
:102410000363114F1D430EEB860345EA0C05E3E809
:10242000024511E044EA8544E3E71418155CA678F8
:1024300094F803C094F801E0360445EA0C6446EAD7
:102440000E252C43001D10C3CC6807EB14442478E0
:102450008442EAD8F0BD000000520390F0B5D1E903
:102460000843CD690A68C2B10268254322F4F842E4
:1024700013431D430560D1E90125D1E903364C69B9
:102480002A434568334389691A43EB0B2243DB0334
:102490000A431A4342600020F0BDD1E9012ED1E980
:1024A000036CD1E9057142EA0E0246EA0C0632439A
:1024B0003A430A4301682A4322431A436FF30E0149
:1024C0000A430260E7E700002DE9F04F8B8A6FF0C6
:1024D0000F05264C4FF07F4BD1F80C9004EB0353C3
:1024E0006FF0FF044FEA042A1AB386684FEA0932F4
:1024F0001F4FA2F580521A433E4032438260D1E919
:1025000000278E68521E05EB07150F8A2A43C568FF
:1025100004EB06240E7E0AEB074322431A430BEB1F
:1025200006610A4305F070431A43C2600020BDE80B
:10253000F08F91E804110F4E521E0F8A05EB08151B
:102540002A4304EB0C2C06EB09350E7E42EA0C0202
:102550002A4385680AEB074422431A430BEB0661C2
:102560000A4305F070431A438260DFE70000F0FF82
:10257000FF0F0FFF00F0FFFF2DE9F04114460D465D
:10258000064616F08DF8194FB87816F05FF816F079
:10259000B7F8300A16F05AF816F0B2F8F0B216F0A2
:1025A00055F816F0ADF816F07BF8B878401CC0B2BC
:1025B00016F04CF816F0A4F80020401CC0B21E28FB
:1025C000FBD3661E002406E016F01EF8285515F011
:1025D000CFFF641CE4B2B442F6DB16F015F82855C0
:1025E00015F0FCFFBDE8F04116F074B8A8E5002036
:1025F0001048012110B5006825F064FF0E4900283D
:102600000E480F4C0A7807D00E49006851F8221086
:1026100022F0DCF8012007E00A490068083951F887
:10262000221022F0D3F800206071BDE81040FEF7C0
:1026300025BD0000940400200C0500209804002013
:1026400008030020780500201048012110B500681B
:1026500025F038FF0E4900280E480F4C0A7807D0A5
:102660000E49006851F8221022F0B0F8012007E06E
:102670000A490068083951F8221022F0A7F8002012
:10268000A071BDE81040FEF7F9BC00008C040020EA
:102690000C0500209004002008030020780500208D
:1026A0002DE9F041234C6521206827F04CFC20687F
:1026B000002127F05FFC204800682AF04AFBFEF763
:1026C00069F980B24FF49665A84200D928461B4E9E
:1026D00030861B4800682AF03CFBFEF75BF980B2AD
:1026E00040F2DC54A04200D920464FF6FF7700EBC1
:1026F000800007EA4000B086124800682AF029FBF3
:10270000FEF748F980B2A84200D9284670860E48E4
:1027100000682AF01EFBFEF73DF981B2A14200D904
:10272000214601EB810007EA4000F086BDE8F04158
:10273000FEF7A4BC940300208C03002008030020B3
:1027400084030020900300208803002027480121F3
:1027500070B5006825F0B6FE254D264E264CF8B122
:102760000121084600F0FEFF0121084616F0EAFDAF
:1027700001202071A07840F00200A0702078297814
:10278000012801D01D4801E01C48183050F82110E4
:10279000306822F01BF82078022822D101211DE0A8
:1027A000FFF702FD0021012016F0CCFD00210120E1
:1027B00000F0D8FF0020207120782978012802D06D
:1027C0000E48083001E00D48103050F821103068F4
:1027D00021F0FCFF2078022803D10021012000F025
:1027E000CDFEBDE87040FEF749BC0000DC030020D0
:1027F0000C050020E003002008030020F405002061
:102800002148012170B5006825F05CFE1F4C204D69
:10281000204EC8B10121002000F0A4FF01210020BA
:1028200016F090FD0120E070A07840F00100A0704B
:102830002978194850F82110306821F0C7FF207816
:1028400002281CD1012117E007F0BEFE0021084636
:1028500016F078FD0021084600F084FF0020E070AB
:102860000D482978083050F82110306821F0AEFF6B
:102870002078022803D10021002000F07FFEBDE86F
:102880007040FEF7FBBB0000BC03002008030020E3
:102890000C050020C0030020E40500201CB500202A
:1028A00002210090FF228DF8001001238DF80120F5
:1028B000082101901A468DF8020068468DF8043010
:1028C000FFF78EFC04480178103050F821000249CF
:1028D000183107F097FD1CBD0C0500201FB51349EA
:1028E000002000900190029003900A78521CD2B20E
:1028F0000A70322A19D90E4C0EA2087008216846B7
:10290000B4F91230FDF718FE0B486946006821F053
:102910005DFFB4F91430082106A202A8FDF70CFEF1
:10292000064802A9006821F051FF1FBDE004002005
:1029300060E6002025640000580400205C040020AC
:10294000012010B5FFF734FC052001F0A1FB0121A7
:10295000BDE810400020FFF711BC0021084610B56B
:10296000FFF70CFC052001F093FBBDE810400020B0
:10297000FFF71EBC012010B5FFF71AFC052001F07F
:1029800087FB0121BDE810400846FFF7F7BB002197
:10299000084610B5FFF7F2FB052001F079FBBDE812
:1029A00010400020FFF704BC012006F001BF00002A
:1029B0002DE9F05F3B4C01263B4A0546DFF8EC80F1
:1029C00004F12C09B0F9141004F1240BB4F90C3003
:1029D0004FF0000A126898F80000994202DBE38980
:1029E000994203DD667059F8201006E0A9896389D1
:1029F000994206D966705BF82010104621F0E6FE79
:102A000001E084F801A02A4F386825F003F9C007D7
:102A1000607806D001280BD13868012123F0DBFE55
:102A200006E028B9FFF75EF83868012123F070FA54
:102A3000B5F91210B4F90C201E48914202DBE2896C
:102A4000914205DD267098F8002059F8221008E020
:102A500069896289914208D9267098F800205BF84C
:102A60002210006821F0B2FE01E084F800A0124DAF
:102A7000286825F0CFF8C007207807D001280FD1AB
:102A800028680121BDE8F05F23F0A5BE002807D12A
:102A9000FFF728F828680121BDE8F05F23F038BA75
:102AA000BDE8F09FA0050020D40300200C05002005
:102AB000F8030020C8030020F40300200548017833
:102AC00029B100210170FEF7D9FA07F0DBFD0121E1
:102AD000F8E700000C0500202DE9F04FDFF8109119
:102AE0000126DFF814B1054641890027DFF804818B
:102AF00085B099F80000ABF1140471B1491E8AB297
:102B00006A815BF820106846FDF702FDD8F80000E6
:102B1000694621F05BFE6F810BE0E9896289914291
:102B200009D93549083151F82010D8F8000021F0B2
:102B30004DFEE67000E0E770DFF8C080D8F80000D6
:102B400025F068F8C007E07807D001280BD1D8F845
:102B50000000012123F03FFE05E020B9D8F8000075
:102B6000012123F0D5F92889DFF89480DFF894A0BB
:102B700080B1401E82B22A8199F8001068465BF845
:102B80002110FDF7C5FCD8F80000694621F01EFEB3
:102B90002F8112E0A8896189884210D9164899F8D6
:102BA0000010083050F82110D8F8000021F00EFE77
:102BB000DAF80000012123F00EFEA67000E0A770F5
:102BC0005546DAF8000025F025F8C007A07808D0AF
:102BD000012803D12868012123F0FDFD05B0BDE8DF
:102BE000F08F0028FAD12868012123F091F9F5E748
:102BF0000C050020D4030020B405002004040020AC
:102C0000C8030020000400202DE9F041174C012AE0
:102C10000E4618D0164FF97879B170B9154D0121CB
:102C2000286823F075F9286800221C211DF006FF92
:102C30002868002207211DF001FF3879002800D004
:102C40001EB1BDE8F0810029FBD12068012123F0ED
:102C50005FF9206800221C211DF0F0FE2068002290
:102C6000BDE8F04107211DF0E9BE0000DC030020B3
:102C700008030020BC030020FEF7D8FDBFF34F8FF0
:102C80000548064A016801F4E06111430160BFF3A1
:102C90004F8F00BFFDE700000CED00E00400FA05D7
:102CA0002DE9F0411B4D1C481D4F1C4E697907F161
:102CB00008081C4C006800294FF0010117D023F0D0
:102CC00027F9217858F82110306821F07FFDA97983
:102CD0001548164D89B12278006858F8221021F065
:102CE00075FD28680121BDE8F04123F011B923F0FA
:102CF00072FD207857F82010E6E72178006857F831
:102D0000211021F063FD28680121BDE8F04123F086
:102D100062BD0000080300209404002098040020F5
:102D2000700500200C050020900400208C04002079
:102D30007FB51E4D00240094082101941CA202942A
:102D4000684603942B8EFDF7F7FB1A486946006826
:102D50002AF058F900940A2601940821A88E14A29A
:102D6000B0FBF6F36846FDF7E7FB134869460068D9
:102D70002AF048F96B8E08210DA202A8FDF7DCFBB2
:102D80000E4802A900682AF03DF902940821039434
:102D900007A2E88EB0FBF6F302A8FDF7CDFB0848CA
:102DA00002A900682AF02EF97FBD00000803002068
:102DB000256400008C030020840300209003002081
:102DC000880300202DE9F041564C574D207855F8E6
:102DD00020105648006821F0F9FC207855F82010A2
:102DE0005348006821F0F2FC217805F1380050F8D2
:102DF00021105048006821F0E9FC217805F14000DD
:102E000050F821104C48006821F0E0FC217805F1D1
:102E1000480050F821104948006821F0D7FC21787B
:102E200005F1300050F821104548006821F0CEFC33
:102E3000217805F1180050F821104248006821F06F
:102E4000C5FC217805F1080050F821103E480068C3
:102E500021F0BCFC2078A5F170063C4D56F82010FE
:102E6000286821F0B3FC207856F82010384E3068DE
:102E700021F0ACFC2C4F2078783F57F820102868C0
:102E800021F0A4FC207857F82010306821F09EFC37
:102E9000217807F110002F4D50F82110286821F0FB
:102EA00095FC217807F1180050F82110286821F0CE
:102EB0008DFC217807F1980050F821102648006811
:102EC00021F084FC254D21782878012802D007F1D3
:102ED000A00001E01448103050F82110204800688C
:102EE00021F074FC28782178012802D00E48583847
:102EF00001E00D4840381B4E50F82110306821F099
:102F000065FC28782178012802D00748503801E074
:102F10000548483850F821103068BDE8F04121F0EC
:102F200055BC00000C0500204C060020B00300201A
:102F3000AC030020A0030020A4030020A80300206D
:102F4000EC030020F0030020FC030020CC03002051
:102F5000E4030020C0030020C40300200803002075
:102F6000D8030020E003002010B51C4C04F1200021
:102F7000217850F821101A48006821F027FC2178A8
:102F800004F1280050F821101648006821F01EFCBA
:102F9000217804F1300050F821101348006821F026
:102FA00015FC217804F1400050F821100F4800680A
:102FB00021F00CFC217804F1480050F821100C4855
:102FC000006821F003FC217804F1380050F821104A
:102FD00008480068BDE8104021F0F8BB0C0500204F
:102FE00010040020180400202004002030040020D9
:102FF000380400204404002070B51E4C1E4D20787B
:1030000055F820101D48006821F0E0FB207855F8A5
:1030100020101B48006821F0D9FB2078083D55F8A6
:1030200020101848006821F0D1FB207855F82010B6
:103030001548006821F0CAFB2178A5F1280050F856
:1030400021101248006821F0C1FB2178A5F1080089
:1030500050F821100E48006821F0B8FB2178A5F146
:10306000100050F821100B480068BDE8704021F0B6
:10307000ADBB00000C05002098050020B404002022
:10308000A0040020BC040020A80400208404002028
:1030900088040020C004002070B51B4C1B48217818
:1030A00050F821101A48006821F090FB1748217849
:1030B000183050F821101748006821F087FB13489A
:1030C0002178103050F821101348006821F07EFB61
:1030D0000E482178203050F821101048006821F067
:1030E00075FB0A4D2078083555F820100C4800680B
:1030F00021F06CFB207855F820100A480068BDE8E4
:10310000704021F063BB00000C050020E4040020A7
:103110007C0400205404002050040020600400209F
:10312000680400207004002004480121002201717D
:10313000C2700170FDF7A2FF07F0A4FA0803002097
:10314000044800210171C1700170FDF797FF07F07D
:1031500099FA0000080300200448002102220171AE
:10316000C1700270FDF78AFF07F08CFA0803002097
:103170002DE9F74F5A4C01285A4D9046DFF86891D7
:103180005A4F2078A9F1400A2A68A9F1380B16D0C5
:10319000F97801291AD0564E306820F04DFE227879
:1031A0005AF82210FDF70EFDB0B1306820F044FE51
:1031B00022785BF82210FDF705FDD8B12AE059F816
:1031C0002010104621F002FB4A481CE046492831F5
:1031D00051F82010104605E043482178383050F867
:1031E0002110286821F0F2FA434819F04DFB002223
:1031F00001460CE03C482178203050F82110286826
:1032000021F0E4FA3D4819F03FFB0022014628680E
:1032100026F057FE01983A4E012829D03879012826
:1032200048D0384D286820F007FE22785AF822103E
:10323000FDF7C8FCA0B3286820F0FEFD22785BF8FB
:103240002210FDF7BFFC002848D127482178203004
:1032500050F82110306821F0B9FA284819F014FB11
:103260000146306803B00022BDE8F04F26F029BEC9
:10327000387802280DD12178286859F8211021F0DA
:10328000A5FA1C4819F000FB00220146286826F028
:1032900018FE2178B8F1010F03D01348083002E07E
:1032A00018E01148103050F82110306821F08EFAE3
:1032B0001048D3E72178B8F1010F02D00A48303026
:1032C00001E00948183050F82110306821F07EFAEA
:1032D0000948C3E7044821783830F4E7BDE8FE8F99
:1032E0000C050020AC030020140600200803002079
:1032F000CC0300204D39F60030861500FA18520034
:10330000B0030020E40300200D48002210B5012185
:10331000006809F036F90B4800220121006809F025
:1033200030F9094800220121006809F02AF907480C
:10333000012211460068BDE8104009F022B90000E2
:10334000F4030020A0030020A4030020A803002011
:103350000A48002210B50121006809F012F9084856
:1033600000228021006809F034F9064800228021FB
:103370000068BDE8104009F02CB900005804002096
:103380008C0300206404002070B52D4C4FF49D7117
:10339000206826F0C1FD2068702126F0A7FA206879
:1033A000042126F0E7FD274C6FF0A701206826F0E6
:1033B000CAFD2068052126F0DDFD234C6FF0810158
:1033C000206826F0C0FD214D2148297850F82110B1
:1033D000206821F0FBF91E482978583850F8211050
:1033E0001C48006821F0F2F91B4800220121006806
:1033F00009F0C7F8194800220121006809F0C1F856
:10340000174800220121006809F0BBF81548002286
:103410000121006809F0B5F8134800220121006875
:1034200009F0AFF8114800220121006809F0A9F85D
:103430000F48012211460068BDE8704009F0A1B8AC
:10344000D0030020B0030020D80300200C0500208A
:103450005C060020E0030020AC030020B80300203D
:1034600000040020F4030020A0030020A803002093
:10347000A40300201548002210B50121006809F0BE
:1034800080F8134800220121006809F07AF81148F9
:1034900000220121006809F074F80F480022012180
:1034A000006809F06EF80D4800220121006809F05B
:1034B00068F80B4800220121006809F062F8094809
:1034C00025210068BDE8104026F03DBD50040020D5
:1034D00054040020840300208C03002058040020A2
:1034E000640400206C04002010B51D4C7821206875
:1034F00026F012FD2068442126F0F8F920686FF0CC
:10350000810126F020FD174C7821206826F004FD6B
:103510002068442126F0EAF92068642126F013FD92
:10352000114800220121006809F02BF80F48002201
:103530000121006809F025F80D48002201210068EA
:1035400009F01FF80B4800220121006809F019F862
:103550000948002201210068BDE8104009F011B8B7
:10356000B0040020B804002088040020C00400201B
:1035700094040020A40400209C04002038B10128F9
:103580000BD106480129006803D0012202E004485B
:10359000F8E70022802109F01CB87047BC03002026
:1035A000DC0300202DE9F041274C804616460F46EB
:1035B000012141F288324FF4FA75208A401C80B212
:1035C00020829042628A02F10102628201D9627A0B
:1035D00032B141F27072904211D9207A28B10EE0D6
:1035E00040F2F510608261720CE021722078A278BE
:1035F0006178E378104332461943FFF705FB607AA0
:1036000001281ED105F072FB607A012819D1608A69
:10361000A84216D90020608205F0E2FD3146384606
:10362000FFF7C6F931464046FFF756FA6178E2786F
:1036300020781143A3783246BDE8F0411843FFF7E4
:1036400097BDBDE8F0810000A0050020002006F035
:10365000AFB800001CB5002102200091FF228DF8B8
:10366000000001918DF8012001228DF8021008213F
:103670008DF804006846FEF7B3FD05480178083070
:1036800050F821000249183106F0BCFE1CBD0000B4
:103690000C050020012010B506F09AFF052000F06F
:1036A000F7FC0121BDE81040002006F077BF0021A3
:1036B000084610B506F072FF052000F0E9FCBDE8F1
:1036C0001040002006F084BF012010B506F080FFF6
:1036D000052000F0DDFC0121BDE81040084606F0A1
:1036E0005DBF0021084610B506F058FF052000F028
:1036F000CFFCBDE81040002006F06ABF10B5064CB4
:103700006FF05801206826F01EFC20680D21BDE8EE
:10371000104026F02FBC0000940300200E4870B526
:103720000E4D0F4C417941B1002141710846FEF721
:103730003FFD09482978343007E0012141710846EE
:10374000FEF736FD044829783C3050F821102068F7
:10375000BDE8704021F03AB8A00500200C0500201B
:10376000E403002010B50C4648B1012819D10E48D9
:103770000CA1006821F02AF874B101200DE00B487B
:1037800008A1006821F022F80CB1012000E000201F
:10379000BDE8104006F01CBF0020BDE81040FEF759
:1037A00007BD10BD00000000D4030020C8030020A6
:1037B0000E4A0F490F4810B513790978006843B1D4
:1037C00000231371343252F8211020F0FFFF002043
:1037D00008E001231371054A3C3252F8211020F011
:1037E000F5FF0120BDE8104006F0F2BEA005002064
:1037F0000C050020CC03002070470000F0B590F8C5
:103800006020012A22D0C1EBC102012780F860703C
:10381000022380F8613000EB8202284D138F168E50
:10382000B2F83CC0D46A1B05283244EA064643EA93
:103830004C530A2C46EA03060AD0092C08D0137B05
:1038400046EA036349B10B2C1AD01DE00220F0BDFB
:10385000D36803F07F433343F4E701684C6AAC4319
:103860001C434C62016813688B6151680A2901D0BE
:1038700009291BD1D168026821F07F41916215E0CE
:10388000118B0F4D43EA81430168CC69AC431C4363
:10389000CC61016813680B6151680A2901D00929BC
:1038A00004D1D168026821F07F411162002180F8C3
:1038B000617080F860100846F0BD00000F0033FF13
:1038C0000F003FFF2DE9F0470446006800274FF046
:1038D00004084FF0010946680568F10714D0E905AE
:1038E00012D5036823F480730360606E40F001001A
:1038F00060662068C0F8089084F8618084F8607081
:10390000616A09B120468847B00615D5A80413D5C9
:1039100020682022036823F400530360206882603B
:10392000606E40F00200606684F8618084F8607028
:10393000616A09B120468847300715D5280513D597
:1039400020680822036823F4006303602068826013
:10395000606E40F00400606684F8618084F86070F6
:10396000616A09B12046884770070CD568050AD5F9
:103970002068026822F4806202602068C0F8088033
:10398000204600F071F8B00713D5A80511D52068BE
:103990000222036823F40073036020688260606E73
:1039A000606684F8619084F86070216A09B12046ED
:1039B0008847F00612D5E80410D52068016821F484
:1039C00080510160226810219160616E616684F807
:1039D0006190204684F86070FFF70EFFBDE8F08725
:1039E0002DE9F041040004D094F86100002518B1DD
:1039F00007E00120BDE8F081204684F8605000F027
:103A000035F8184E022084F861000123D4E9001033
:103A1000D4F81CC040F207120F6840EA0C0037408F
:103A2000384308602068A769A168466B394396430C
:103A3000314341632068E268016C6FF30F01114369
:103A400001642068218AA28A466B090541EA425135
:103A500026F4401211434163656684F8613000200A
:103A6000C8E70000BFFFF8FF7047000008B5006816
:103A70000B49884212D10B48016841F010010160E6
:103A800000680022092100F0100000905A2001F087
:103A9000CDFCBDE808405A2001F0BABC08BD0000CA
:103AA00000100052D44402582DE9F84F044601F0AA
:103AB00019FA00903CB194F83500022806D0802114
:103AC00061650020E4E00120BDE8F88FC74DC74ED6
:103AD000C649183520683036DFF81483DFF81493B0
:103AE0008842DFF814A3DFF814B32ED0A8422CD0FC
:103AF000B0422AD0404528D0484526D0504524D051
:103B0000584522D0BD4A183290421ED0BC4A90423D
:103B10001BD0BB4A1832904217D0B94A303290427B
:103B200013D0B74A483290420FD0B54A6032904223
:103B30000BD0B34A7832904207D0B14A90329042CB
:103B400003D0AF4AA832904209D1026822F01E0287
:103B500002602068426922F08002426103E002684C
:103B600022F00E02026027688F4238464DD0A842EC
:103B70004BD0B04249D0404547D0484545D050454C
:103B800043D0584541D09D4A183290423DD09C4A7E
:103B900090423AD09A4A1832904236D0984A3032FF
:103BA000904232D0964A483290422ED0944A6032A7
:103BB00090422AD0924A7832904226D0904A90324F
:103BC000904222D08E4AA83290421ED08D4A904216
:103BD0001BD08C4A1432904217D08A4A2832904225
:103BE00013D0884A3C3290420FD0864A50329042DD
:103BF0000BD0844A6432904207D0824A7832904295
:103C000003D0804A8C32974204D1206E026822F49D
:103C10008072026075492068884228D0A84226D068
:103C2000B04224D0404522D0484520D050451ED037
:103C300058451CD071491831884218D070498842C3
:103C400015D06F491831884211D06D493031884202
:103C50000DD06B494831884209D0694960318842AA
:103C600005D067497831884201D0654990310168B3
:103C700021F0010101600EE001F034F90099401AD1
:103C8000052808D9202262650321002084F8351018
:103C900084F8340017E73868C007EDD1534A012192
:103CA000206890422ED0A8422CD0B0422AD0404565
:103CB00028D0484526D0504524D0584522D04F4BD7
:103CC000183398421ED04E4B98421BD04C4B1833A1
:103CD000984217D04A4B3033984213D0484B483360
:103CE00098420FD0464B603398420BD0444B783308
:103CF000984207D0424B9033984203D0404BA833B0
:103D0000984208D194F85C703F23A06D07F01F071C
:103D1000BB40836007E094F85C30A06D03F01F03A4
:103D200001FA03F34360206890424DD0A8424BD083
:103D3000B04249D0404547D0484545D0504543D092
:103D4000584541D02D4A183290423DD02C4A9042DD
:103D50003AD02B4A1832904236D0294A303290421B
:103D600032D0274A483290422ED0254A60329042C3
:103D70002AD0234A7832904226D0214A903290426B
:103D800022D01F4AA83290421ED01E4A90421BD019
:103D90001C4A1432904217D01A4A2832904213D04B
:103DA000184A3C3290420FD0164A503290420BD003
:103DB000144A6432904207D0124A7832904203D0BB
:103DC000104A8C3290420BD1D4E919024260E06E65
:103DD00030B1026822F480720260D4E91C024260B1
:103DE000002084F8351084F834006DE6100002409D
:103DF000580002407000024088000240A0000240CB
:103E000010040240085402582DE9F05F28B190F8E0
:103E10003510022904D0802141650120BDE8F09FC2
:103E2000904C904B0168183C18338E4ADFF83C9256
:103E3000A1428D4CDFF838E28E4FDFF83CB2DFF85C
:103E40003CA28F4D8F4E31D091422FD099422DD030
:103E5000A1422BD0494529D0714527D0B94225D060
:103E6000DFF810C20CF1180C61451FD0DFF808C252
:103E7000ACF1600C614519D0DFF8FCC1ACF1480C25
:103E8000614513D0DFF8F0C1ACF1300C61450DD0C5
:103E9000DFF8E4C1ACF1180C614507D0594505D0F5
:103EA000514503D0A94201D0B1422CD1DFF8B4C1B1
:103EB0004FF0040880F83580ACF1180C61451DD036
:103EC00091421BD0994219D0A14217D0494515D033
:103ED000714513D0B94211D06648183081420DD0D7
:103EE00065486038814209D063484838814205D02E
:103EF00061483038814201D05F481838086820F0A6
:103F000001000860ABE0D1F800C02CF00E08DFF82B
:103F100054C1C1F80080ACF1180C0168614527D08C
:103F2000914225D0994223D0A14221D049451FD0AA
:103F300071451DD0B9421BD0DFF838C10CF1180C07
:103F4000614515D0DFF830C1ACF1600C61450FD090
:103F5000DFF824C1ACF1480C614509D0DFF818C185
:103F6000ACF1300C614503D0DFF80CC1ACF1180C9A
:103F7000D1F800C02CF0010CC1F800C0DFF8E480DB
:103F80004FF0010C0168A8F11808414546D0914254
:103F900044D0994242D0A14240D049453ED07145DB
:103FA0003CD0B9423AD0334A1832914236D0324AE4
:103FB000603A914232D0304A483A91422ED02E4A4D
:103FC000303A91422AD02C4A183A914226D059458B
:103FD00024D0514522D0A94220D0B1421ED02A4A35
:103FE00091421BD0284A1432914217D0264A2832D7
:103FF000914213D0244A3C3291420FD0224A50328F
:1040000091420BD0204A6432914207D01E4A783246
:10401000914203D01C4A8C32914218D1016E0A6839
:1040200022F480720A6090F85C20816D02F01F0219
:104030000CFA02F24A60D0E919124A60C16E31B13D
:104040000A6822F480720A60D0E91C124A600022D9
:10405000016D80F835C080F8342001B18847002018
:10406000DCE60000280002405800024070000240D8
:1040700088000240A0000240700402408804024010
:10408000A0040240B804024008540258406D704732
:1040900070B5044600F026FF0546601C02D00448B7
:1040A0000078044400F01EFF401BA042FAD370BD0C
:1040B0001800002010B590F89830012B09D0022B81
:1040C00007D0D0F89C1041F00201C0F89C100120EC
:1040D00010BD03689C6D0C4203D1DC6D44F00104FB
:1040E00004E09C6D31EA04041FD00324DC658B05D9
:1040F00005D50368D3F8E0401443C3F8E0404B050E
:1041000005D50368D3F8E4401443C3F8E4400068DD
:10411000084A01EA0203446D074A1C4344651068DB
:1041200040EA91701060002010BDDC6D44F0020484
:10413000DCE70000FFFFCF3F14A8004070B5044645
:1041400090F89800022804D0D4F89C0040F00800B1
:104150000DE02068D0F8C03013F07C5F0BD0D0F8B1
:10416000C4309B020CD5D4F89C0040F40070C4F815
:104170009C00012070BDD4F89C0040F02000F6E7C0
:10418000D0F8C400C0F3044520462B46FEF726F9BC
:1041900021680120A840C1F8D000C4F89400002094
:1041A00070BD704790F89830012B07D0D0F89C1064
:1041B00041F00401C0F89C100120704761B1006813
:1041C000012913D0D0F8B01021F0FE4141EA02617C
:1041D000C0F8B010002070470068D0F8F01021F04F
:1041E0007C5141EA0261C0F8F010F3E7D0F8A0106A
:1041F00021F0FE4141EA0261C0F8A010EAE770B583
:1042000090F89820012A09D0022A07D0D0F89C10F3
:1042100041F00201C0F89C10012070BD0B68CA6813
:1042200083B10B69072A43EA427325D00C7A4A69A5
:1042300042EA84724968006F00EBC100C0E90032B5
:10424000002070BD072A0DD00C7AD6060D8A4B6966
:1042500043EA847246EA0543C06E49681A4340F84F
:104260002120EDE70B8A4FF06055D1E9062442EAA0
:10427000034245EA0423EFE78A69DBE730B590F8AB
:104280009850039C012D07D0D0F89C1041F00401F8
:10429000C0F89C10012030BD0D01016845EA820084
:1042A00040EA43002043C1F88000002030BD704741
:1042B00070470000F0B590F898400025022C04D01B
:1042C000D0F89C1041F008012BE040294FF0004647
:1042D00005D0412929D0046D8C4219D942E00468E7
:1042E000D4F8A07017F4FE0F12D0D4F8A4707F0693
:1042F00013D0D4F8A470FF0105D5D4F8A070B6EBA4
:10430000D77F00D10125D4F8A470466F446C24E017
:10431000D0F89C1041F0200103E0D0F89C1041F44B
:104320008071C0F89C100120F0BD0468D4F8B07012
:1043300017F4FE0FECD0D4F8B4707F06EDD0D4F8AB
:10434000B470FF0105D5D4F8B070B6EBD77F00D1BB
:104350000125D4F8B470866FC46CC7F305273D44BB
:104360006C4302E0446DC66F4C4306EB8404266840
:1043700016F080465660266836D026F060461660F5
:10438000D4F800C000262F4F0CF0005CC2F808C023
:10439000D4F800C00CF0004CC2F810C0B4F804C04F
:1043A0001FFA8CFCC2F81CC0D4F804C00CF4702CAA
:1043B000C2F80CC0D4F804C00CF4801CC2F814C0BD
:1043C000D4F804C00CF4001CC2F818C0D4F804C01F
:1043D000CCF3066CC2F820C0D4F804C008344FEA0D
:1043E000DC7CC2F824C008E0C6F38A46C7E700BFF9
:1043F00014F806C003F806C0761CD2F80CC007EB10
:104400001C4C9CF800C0B445F2D840290AD0412980
:104410000CD020294FF001020CD200688A40C0F86D
:1044200098200DE00068C0F8A85009E00068C0F8C6
:10443000B85005E0006801F01F018A40C0F89C20D8
:104440000020F0BD005203900068D0F8C40000F0D6
:104450003F007047704700002DE9FF5FDFF80CB3A5
:1044600004460BF10401DBF8000025680F68AA463A
:104470008007D5F85090696DD5F850806E6D2A6D23
:10448000D5F854C02B6D00EA8770009009F470498C
:104490006F6D286D01EA09010191DAF85410DAF81C
:1044A0005490DAF8505008F00F0806EA0806029611
:1044B00002F0F00203F071536FEA09061F4000F0AA
:1044C00060700CEA020CCDF80CC0F20501EA00099C
:1044D0000CD4E843C00509D400214FF48073CAF816
:1044E0005030CBF800102046FFF7B4FF700512D40F
:1044F000E84340050FD4206800234FF48068D0F8CB
:10450000DC20D0F8E410C0F85080CBF80030114027
:10451000204600F03DFBDFF858A2009850B1226819
:10452000830F00EA0A001065CBF80030204600999E
:10453000FFF737FE019850B12268830F00EA0A00A6
:104540001065CBF800302046019900F023FB02985B
:1045500050B12268830F00EA0A001065CBF80030E2
:104560002046029900F0BAFA039850B12268830FEE
:1045700000EA0A001065CBF800302046039900F0ED
:10458000E7FA30050CD4E843000509D4236800207D
:104590004FF400621A65CBF80000204600F0FBFAE9
:1045A000B00512D4E84380050FD4206800234FF4EF
:1045B0000078D0F8D820D0F8E010C0F85080CBF8C0
:1045C00000301140204600F0E4FA30030CD4E843F8
:1045D000000309D4236800204FF400221A65CBF8A9
:1045E0000000204600F078FAF0030CD4E843C00342
:1045F00009D4236800204FF480321A65CBF80000FC
:10460000204600F0C4FA70030CD4E843400309D4F8
:10461000226800204FF480231365CBF80000204669
:1046200000F0B4FAB0030FD4E84380030CD423683D
:1046300000204FF400321A65CBF80000D4F89C003B
:1046400040F08000C4F89C00B9F1000F0BD0226844
:104650004FEA997309EA0A001065CBF80030494621
:104660002046FFF725FE5FB12268BB0F07EA0A006C
:104670001065CBF80030D4F89C003843C4F89C0097
:104680003C492068884268D160688146806880071C
:1046900063D0D9F82060D9F82410D9F82080D9F84F
:1046A0002400D9F820C0D9F82470D9F82030D9F8DE
:1046B0002450D9F8202003F4FC4306F00F0AD9F85F
:1046C00024601D40D9F824B008F030080CF4C07CF8
:1046D00002F4F02211EA0A0100EA080807EA0C07CE
:1046E00006EA0206D9F820A004D0C9F82010204616
:1046F00000F049FAB8F1000005D06168086241464F
:10470000204600F042FA6FEA0B0040060ED46FEA32
:104710000A0040060AD460684021C36BC26B016284
:104720002046190C02F03F0200F02EFA2FB160680B
:1047300007623946204600F025FA35B16068056207
:10474000D4F89C002843C4F89C0036B16068066227
:10475000D4F89C003043C4F89C00D4F89C00002896
:1047600002D02046FFF7A3FDBDE8FF9F10A8004040
:10477000FFFFCF3F00A000402DE9F04194B08D49EC
:104780004C2204466846FCF79AF964B18A4D2068C9
:10479000A84202D100F58070606094F898004FF054
:1047A000000820B108E0012014B0BDE8F0812046E7
:1047B00084F8998000F002F92068816921F01001E5
:1047C000816100F08FFB0327064604E000F08AFBBE
:1047D000801B0A2811D8206880690007F6D4206859
:1047E000816941F00101816100F07CFB06460DE02A
:1047F00000F078FB801B0A2808D9D4F89C0040F010
:104800000100C4F89C0084F89870CCE720688069A7
:10481000C007EDD02068816941F002018161207CF0
:1048200001282068816937D041F040018161607CB6
:1048300001282068816932D021F480418161A07C07
:104840000128206881692DD041F480518161206860
:10485000A268816921F440711143816120688169F6
:1048600021F0A40181612068016921F0100101613A
:10487000E068012819D010B302281BD02068816994
:1048800041F0800181612068016941F010010161FE
:10489000E06803280ED012E021F04001C6E741F4A1
:1048A0008041CBE721F48051D0E72068816941F055
:1048B000040103E02068816941F020018161207ECC
:1048C0006FF0FF02D4E90773A68A1102400602EBDB
:1048D0000727A0F10070384327685B1E184301EBDF
:1048E00006463043F861A068B0F5407F11D104F16D
:1048F0002800A68C6FF00F0C89C801EB0641401E02
:1049000002EB0322104322680CEB07131843084301
:10491000D060206E30B12068626ED0F8C0101143B4
:10492000C0F8C010D4E917126846D14209D02168F6
:10493000A36E51F8C82F50F8233022F007021A4313
:104940000A60216C49B12168626C51F8BC3F50F893
:10495000226023F0070232430A60A16C51B1216842
:10496000E36C51F8BC2F50F8233022F0700242EA79
:1049700003120A60216D51B12168626D51F8BC3F8C
:1049800050F8220023F4E06242EA00200860206828
:10499000A84204D16068816821F003018160C4F8F5
:1049A00094800121C4F89C8084F898102046FDF77B
:1049B00031FCF9E61052039000A000402DE9F043CD
:1049C000B5B0804614212FA8FCF7D5F8BC21684665
:1049D000FCF7D1F83B4D4FF40041D8F80000002619
:1049E000394B4A03364F0C3D364C98424FF0020883
:1049F0004FF009092ED168461B92009100F0C8FEC5
:104A000008B1FDF7F8FB3868401C3860012807D171
:104A1000206840F480702060206800F4807034903A
:104A2000286840F00100286028684FF4C052CDE9A2
:104A3000308600F001002F9232962FA9CDE93390F5
:104A4000224800F021F900221320114600F0EEFC6C
:104A5000132030E01E4B98422FD168461B920091E4
:104A600000F096FE08B1FDF7C6FB3868401C3860C0
:104A7000012807D1206840F480702060206800F48D
:104A800080703490286840F00200286028684FF455
:104A90004052CDE9308600F002002F9232962FA9C5
:104AA000CDE933900B4800F0EFF8002214201146B6
:104AB00000F0BCFC142000F0ABFC35B0BDE8F08386
:104AC0000C000020EC44025800A0004000000258F6
:104AD00000A40040000402587047000030B50546AD
:104AE000194897B00C46854213D1A00711D5402133
:104AF0006A4614AB2846FFF7DDFB00222846022158
:104B0000FFF7D8FA019820B914AA69462846FDF79C
:104B1000A5F80E48854214D1A00712D54021284699
:104B200014AB0AAAFFF7C6FB002228460221FFF7B2
:104B3000C1FA0B98002804D114AA28460AA9FDF747
:104B40008DF817B030BD000004070020A407002036
:104B5000704790F89810012907D0D0F89C1041F0C8
:104B60000401C0F89C1001207047022180F89810C1
:104B7000002201688B6923F001038B61C0F89C203F
:104B800010467047704770477047704770477047CE
:104B90007047704770477047F0B5B5B0142168464C
:104BA000FBF7E9FF3048016800295BD10121016072
:104BB000BC2105A8FBF7DFFF4FF0807005900024B3
:104BC000169405A800F0E4FD08B1FDF714FB274892
:104BD000016841F48051016000680226032769469C
:104BE00000F4805034904FF63F00CDE90006204895
:104BF0000C25CDE90247049500F046F81D486946AA
:104C0000CDE90056CDE90247049500F03DF880203B
:104C10006946CDE900061848CDE90247049500F041
:104C200033F848F237106946CDE900061348CDE95C
:104C30000247049500F028F84FF683706946CDE9E5
:104C400000060F48CDE90247049500F01DF84CF22C
:104C500003706946CDE900060A48CDE9024704958C
:104C600000F012F835B0F0BD10000020D444025816
:104C70000014025800080258000002580018025898
:104C800000100258000C02582DE9F84F03247D4D06
:104C900000234FF001094FF0B04B4FF00F0AE9E04D
:104CA00009FA03F73A4076D00E7906F00306012E92
:104CB00001D0022E18D1D0F808C04FEA430ECE68BA
:104CC00004FA0EF82CEA080C06FA0EF646EA0C0670
:104CD0008660D0F804C00E792CEA070CC6F30016E3
:104CE0009E4046EA0C0646600E79F643B6070BD0A6
:104CF000C6684FEA43088F6804FA08FC26EA0C06E7
:104D000007FA08F73743C7600E7906F00306022E4C
:104D100012D1DE080F694FEA437C00EB8606B646E7
:104D2000366A4FEADC6C0AFA0CF807FA0CF726EA46
:104D300008063743CEF820700F7906684FEA43081B
:104D400007F0030704FA08FC07FA08F726EA0C063E
:104D5000374307604E6816F4403F1CD04A4E376810
:104D600047F00207376036689F0706F00206009694
:104D700023F0030606F1B046B6463F0FD6F80864A6
:104D8000DFF808810AFA07FC404526EA0C0603D141
:104D90004FF0000C41E06CE0DFF8F4C0604502D158
:104DA0004FF0010C39E0DFF8ECC0604502D14FF064
:104DB000020C32E0DFF8E0C0604502D14FF0030C96
:104DC0002BE0DFF8D8C0604502D14FF0040C24E09E
:104DD000DFF8CCC0604502D14FF0050C1DE0DFF8D4
:104DE000C4C0604502D14FF0060C16E0DFF8B8C031
:104DF000604502D14FF0070C0FE0DFF8B0C060450E
:104E000002D14FF0080C08E0DFF8A4C0604502D1E1
:104E10004FF0090C01E04FF00A0C0CFA07FC4CEAC9
:104E2000060CCEF808C44F68DBF80060FF0226EAE3
:104E3000020600D516435F46CBF80060D1F804C0E7
:104E4000DBF804605FEA8C2C26EA020600D51643E4
:104E50007E606E684F6826EA0206BF0300D51643DF
:104E60006E602E684F6826EA0206FF0300D51643DF
:104E70002E605B1C0A6832FA03F67FF411AFBDE8BE
:104E8000F88F000080000058F444025800000258D7
:104E90000004025800080258000C02580010025882
:104EA0000014025800180258001C02580020025832
:104EB000002402580069084000D001207047426970
:104EC00021EA02030A4043EA0241816170470AB1C4
:104ED000816170470904FBE701480068000C7047D6
:104EE0000010005C01488068704700001800002036
:104EF000074908B50A6842F002020A60096801F031
:104F00000201009103490A6802430A6008BD0000DB
:104F1000F44402580404005802488168027811449D
:104F20008160704718000020032010B500F09EFA41
:104F300001F00CFA0F4A104914681368C4F30322F5
:104F400003F00F038A5CC95C02F01F0201F01F012D
:104F5000D0400A4A20FA01F11160094908600F2087
:104F600000F010F808B1012010BD00F043FA002055
:104F700010BD0000184402588452039028000020FD
:104F80002400002070B50D4D04462878A0B14FF4E0
:104F90007A71B1FBF0F00A490968B1FBF0F002F058
:104FA00031F848B9102C07D200222146501E00F0DB
:104FB0003DFA00206C6070BD012070BD180000201B
:104FC000240000202DE9F041044690F8A000164688
:104FD0000F4601281DD0012584F8A050022084F836
:104FE000A10006EB860000EBC600342204EB800033
:104FF0003830FBF764FD32463946204602F068FE41
:10500000216800204D6284F8A15084F8A000BDE81A
:10501000F0810220FBE770472DE9F041044600686B
:1050200000274FF00408856B466B690715D571079B
:1050300013D5426B22F0040242632068C0F83C8022
:10504000D4F8A40040F00100C4F8A40084F8A180C2
:10505000204684F8A070FFF7DEFFA80716D5B0073A
:1050600014D520680222436B23F0020343632068B7
:10507000C263D4F8A40040F00200C4F8A40084F88D
:10508000A180204684F8A070FFF7C5FF05EA06005E
:105090004FF00108C0070ED021684A6B22F00102D0
:1050A0004A632168C1F83C8084F8A180204684F8D6
:1050B000A07000F091F8280710D530070ED52068B1
:1050C0000822436B23F0080343632068C26384F81B
:1050D000A180204684F8A07000F064F9BDE8F0815A
:1050E0002DE9F041040004D094F8A100002518B186
:1050F00007E00120BDE8F081204684F8A05000F0D0
:105100006DF83448022184F8A110012202CC8B6989
:1051100023F070438B6194E84A001943E3681E430F
:1051200054F8043D31439E693143996121688B688D
:1051300003408B602168A68AA7698B683B4343EADA
:1051400006438B602168CB680340CB602168A38B4A
:10515000276ACE683E4346EA0346CE6021680B6963
:1051600003400B612368A68CA76A1969394341EA99
:105170000641196121684B6903404B612068A38D8A
:10518000266B4169314341EA03414161236894F848
:10519000351094F83600DE6A000406F07F46DE62C1
:1051A000236840EA012094F83460D96A314301430E
:1051B000D9622068416B41F0060141632068816932
:1051C00041F001018161C4F8A45084F8A1200020BD
:1051D00090E7000000F800F0704700002DE9F04F64
:1051E000B5B0044614216846FBF7C5FCBC2105A8F0
:1051F000FBF7C1FC6349206888427CD10EAE4004B5
:1052000005901922B423022486E81C0012AA1194E6
:10521000142100254FF4007882E8220105A8159595
:1052200000F0B6FA08B1FCF7E6FF5748016841F014
:1052300008010160006800F0080034905248001F27
:10524000016841F020010160016801F02001349102
:10525000016841F004010160016801F0040134912A
:10526000016841F001010160016801F00101349120
:10527000016841F002010160016801F0020134910E
:10528000016841F040010160016801F04001349182
:10529000016841F008010160006803260E27694695
:1052A00000F0080034904FF480608DE8F10037483A
:1052B000FFF7EAFCC120DFF8D8B08DE8F1006946BD
:1052C0005846FFF7E1FC782069468DE8F100314847
:1052D000FFF7DAFC02AADFF8C0A0CDE900644FF0C6
:1052E0000909694682E860025046FFF7CDFC4FF499
:1052F0007060694600E041E08DE8F1005046FFF73C
:10530000C3FCC020DFF894A08DE8F1006946504648
:10531000FFF7BAFC0A20CDF800806946CDE90360AA
:10532000CDE901455846FFF7AFFC4FF48070029578
:10533000CDE900040D206946CDE903601548FFF76B
:10534000A3FC082069468DE8F1001548FFF79CFC96
:105350004FF4805150468DE872026946FFF794FC85
:105360004020FFF7C5FD8020FFF7C2FD0022092184
:10537000582000F05BF8582000F04AF835B0BDE83E
:10538000F08F000000100050E4440258001402584E
:105390000008025800000258000402580018025881
:1053A000000C025801490020087070474402002098
:1053B00070B5044690F8A0000B46012818D002EB07
:1053C000820000EBC201012584F8A050022084F87D
:1053D000A10004EB81012046CB65383102F078FC56
:1053E000216800204D6284F8A15084F8A00070BDAF
:1053F000022070BD054808B5016841F00201016056
:10540000006800F00200009008BD0000F44402585B
:10541000002809DB410900F01F028900012001F189
:10542000E0219040C1F80001704700000E4BF0B43D
:105430001B680D46C3F30223C3F10706042E00D9EF
:105440000426191D072901D2002300E0DB1E0124D8
:1054500004FA06F19C40491E2940641E99401440FC
:105460002143F0BC05F0FDB80CED00E0064900F06A
:10547000070210B54FF6FF040868044B204040EACD
:1054800002201843086010BD0CED00E00000FA0592
:10549000134970B50A68D243520705D5096801F06F
:1054A0000701814213D118E00A6822F00702024383
:1054B0000A60FFF717FD0A4D4FF47A760446083D5F
:1054C00007E000BFFFF70EFD001BB04201D901202D
:1054D00070BD2868C0438004F4D4002070BD000073
:1054E0000C48025810B500F0EBFE05490968054A62
:1054F000C1F30211515C01F01F01C84010BD000052
:105500002044025884520390494930B5484C0B1D41
:105510000A68143409681D68246802F00303C5F39F
:105520000012C1F30531C4F3CC04002914FB02F2CC
:1055300000EE102AF8EE400A75D03F4A9FED3D1A62
:10554000B7EE000A6BB1DFED3D1A012B01D0022B43
:1055500064D002EE101A1168F8EE422A81EEA22AF7
:1055600021E0334C283C23689B0612D5344B246839
:1055700001EE901A1168C4F3C104F8EE612AE34009
:1055800001EE903AC1F30801F8EE611A81EEA22A09
:105590000BE001EE901ADFED2B2A00BFF8EE611A46
:1055A000116882EEA12AC1F3080101EE901A116878
:1055B000F8EE611A40EE811A71EE800A62EE200A5E
:1055C000C1F3462101EE101AB8EE411A31EE001A6D
:1055D000C0EE811ABCEEE11A80ED001A1168C1F329
:1055E000064101EE101AB8EE411A31EE001AC0EE73
:1055F000811ABCEEE11A80ED011A1168C1F306614F
:1056000001EE101AB8EE411A31EE000A80EE801A4F
:10561000BCEEC10A80ED020A30BD04E001EE901A32
:10562000DFED092ABAE70021016041608160F3E7FC
:105630002844025800000039384402580024744AB3
:105640000090D0030024744C20BCBE4B494930B5B7
:10565000484C0B1D0A681C3409681D68246802F058
:105660000303C5F30022C1F30551C4F3CC040029A0
:1056700014FB02F200EE102AF8EE400A75D03F4A01
:105680009FED3D1AB7EE000A6BB1DFED3D1A012B1D
:1056900001D0022B64D002EE101A1168F8EE422AF3
:1056A00081EEA22A21E0334C283C23689B0612D5C8
:1056B000344B246801EE901A1168C4F3C104F8EE6B
:1056C000612AE34001EE903AC1F30801F8EE611A55
:1056D00081EEA22A0BE001EE901ADFED2B2A00BF2B
:1056E000F8EE611A116882EEA12AC1F3080101EEF9
:1056F000901A1168F8EE611A40EE811A71EE800A74
:1057000062EE200AC1F3462101EE101AB8EE411AEA
:1057100031EE001AC0EE811ABCEEE11A80ED001ADB
:105720001168C1F3064101EE101AB8EE411A31EECC
:10573000001AC0EE811ABCEEE11A80ED011A116860
:10574000C1F3066101EE101AB8EE411A31EE000AFB
:1057500080EE801ABCEEC10A80ED020A30BD04E082
:1057600001EE901ADFED092ABAE7002101604160DD
:105770008160F3E728440258000000394044025891
:105780000024744A0090D0030024744C20BCBE4B0B
:105790002DE9FC5F044650F8241B002500902E469E
:1057A0000801FE4FDFF8F8831DD5606E50B1B0F5EB
:1057B000801F0CD0B0F5001F0ED0B0F5401F1DD0DB
:1057C00001250FE0386840F40030386016E002210F
:1057D000201D03F005FB03E00098022103F090FB7D
:1057E00005000BD02E462088C00523D5606D052806
:1057F0001ED2DFE800F00C11161B1B00626ED8F8F9
:10580000001021F440111143C8F80010EBE738688C
:1058100040F40030386009E00021201D03F0E0FA78
:1058200003E00098002103F06BFB05466DB100E03A
:1058300001252E462088800528D5A06D80281ED001
:105840000CDC90B140280ED114E0626DD8F8001045
:1058500021F007011143C8F80010EBE7C02813D06E
:10586000B0F5807F10D001250FE0386840F400309B
:10587000386009E00021201D03F0B2FA03E000982F
:10588000002103F03DFB054695B12E462088DFF848
:105890001093400509F108092CD5D4F8A400B0F5FF
:1058A000800F20D00DDCA0B1B0F5001F0FD115E0A6
:1058B000A26DD8F8001021F4E0711143C8F800106F
:1058C000E4E7B0F5C00F13D0B0F5000F10D00125FC
:1058D0000FE0386840F40030386009E00021201DF6
:1058E00003F07EFA03E00098002103F009FB05466F
:1058F00075B12E46208800052DD5D4F8A800B0F14A
:10590000007F21D00EDCA8B1B0F1807F10D116E06D
:10591000D4F8A420D9F8001021F460011143C9F88B
:105920000010E7E7B0F1407F13D0B0F1806F10D0E6
:1059300001250FE0386840F40030386009E00021AC
:10594000201D03F04DFA03E00098002103F0D8FA7F
:1059500005466DB12E46206880011FD5A06CD8B1D8
:1059600010280FD0202812D0302815D0012514E09F
:10597000D4F8A820D9F8001021F0E0611143C9F84B
:105980000010E8E7386840F40030386004E0022195
:10599000201D03F025FA05466DB12E462088C0046F
:1059A0002BD5E06DB0F5005F20D00DDCA0B1B0F5D7
:1059B000805F0FD115E07A48A26C001F016821F0CA
:1059C000300111430160E9E7B0F5405F13D0B0F555
:1059D000804F10D001250FE0386840F40030386067
:1059E00009E00021201D03F0FBF903E000980021ED
:1059F00003F086FA054685B12E462088800429D515
:105A0000206EB0F5403F23D010DC08B3B0F5803FE6
:105A100014D0B0F5003F0FD115E0E26DD8F80010BA
:105A200021F4E0411143C8F80010E6E7B0F5802FFB
:105A30000ED0B0F5A02F0BD001250AE00121201DCA
:105A400003F0CEF903E00098012103F059FA05466E
:105A50008DB12E46208840042AD5D4F8AC00B0F190
:105A6000405F23D010DC08B3B0F1805F14D0B0F1F8
:105A7000005F0FD115E0226ED8F8001021F4E0216C
:105A80001143C8F80010E5E7B0F1804F0ED0B0F137
:105A9000A04F0BD001250AE00121201D03F0A0F941
:105AA00003E00098012103F02BFA05466DB12E4664
:105AB000208800041FD5E06ED8B1B0F1805F0ED011
:105AC000B0F1005F10D0012514E0D4F8AC20D9F873
:105AD000001021F0E0411143C9F80010E8E73868F0
