:0200000490006A
:10000000E8390120A9030090919800906187009041
:10001000AD950090632E0090A9B5009000000000FF
:100020000000000000000000000000001F9F009082
:100030004D32009000000000619900906D9F00908B
:10004000C3030090C3030090C3030090C303009058
:10005000C3030090C3030090C3030090C303009048
:10006000C3030090C3030090C3030090C303009038
:10007000C3030090C3030090C3030090C303009028
:10008000C3030090C3030090C3030090D1320090DB
:10009000DD320090C3030090C3030090C3030090BF
:1000A000C3030090C3030090C3030090C3030090F8
:1000B000C3030090C3030090C3030090C3030090E8
:1000C000C3030090C3030090C3030090C3030090D8
:1000D000C3030090C3030090C3030090C3030090C8
:1000E000C3030090C303009000000000C30300900E
:1000F000C3030090C3030090C3030090C3030090A8
:10010000C3030090C3030090C3030090C303009097
:10011000C3030090F5A70090C3030090C3030090B1
:10012000C3030090C3030090C3030090C303009077
:10013000C3030090C3030090C3030090C303009067
:1001400000000000000000000000000000000000AF
:10015000C3030090C3030090C3030090C303009047
:10016000C3030090C3030090C3030090C303009037
:10017000C3030090C3030090C3030090C303009027
:10018000C3030090C3030090C3030090C303009017
:10019000C3030090C3030090C3030090C303009007
:1001A000B5880090C303009041320090C3030090D3
:1001B000C3030090C3030090C3030090C3030090E7
:1001C000C3030090C3030090C3030090C3030090D7
:1001D000C3030090C3030090C3030090C3030090C7
:1001E000C3030090C3030090C3030090C3030090B7
:1001F000C3030090C3030090C3030090C3030090A7
:10020000C3030090C3030090C3030090C303009096
:10021000C3030090C3030090C3030090C303009086
:10022000C3030090C3030090C303009000000000CC
:10023000C3030090C303009000000000C3030090BC
:10024000C3030090C3030090C3030090C303009056
:10025000C3030090C3030090C3030090C303009046
:10026000C3030090C3030090C3030090C303009036
:10027000C3030090C3030090C3030090000000007C
:10028000C3030090C3030090C3030090000000006C
:1002900000000000C303009000F002F800F075F8C1
:1002A0000AA090E8000C82448344AAF10107DA45D1
:1002B00001D100F06AF8AFF2090EBAE80F0013F0AE
:1002C000010F18BFFB1A43F00103184790480500BF
:1002D000C04805000A444FF0000C10F8013B13F031
:1002E000070408BF10F8014B1D1108BF10F8015B8F
:1002F000641E05D010F8016B641E01F8016BF9D182
:1003000013F0080F1EBF10F8014BAD1C0C1B09D1D8
:100310006D1E58BF01F801CBFAD505E014F8016B4A
:1003200001F8016B6D1EF9D59142D6D370470000DC
:100330000023002400250026103A28BF78C1FBD8EE
:10034000520728BF30C148BF0B607047662936F09E
:100350004184642900F02281782900F05B8100202B
:1003600070471FB536F02EFC00F08EFE0400002012
:10037000002136F009FC401C60600020002136F0AE
:10038000EDFBE0601FBD10B510BD01F01FF8114678
:10039000FFF7E7FF2FF004F901F07FF803B4FFF750
:1003A000F2FF03BC0DF0ECF909488047094800470B
:1003B000FEE7FEE7FEE7FEE7FEE7FEE7FEE7FEE715
:1003C000FEE7FEE704480549054A064B7047000072
:1003D00035A0009099020090E82F0120E839012013
:1003E000E8310120E8310120704753EA020C00F0A7
:1003F00069802DE9F04B4FF00006002B1FBFB3FAC8
:1004000083F503FA05F424FA05F65E4012BF16439D
:10041000B2FA82F502FA05F4C5F120051EBF22FAF0
:1004200005FC44EA0C04203556EA044C4FEA144417
:1004300018BF641C4FF000084FF00009904271EBA8
:10044000030C39D3002919BFB1FA81F701FA07F675
:10045000B0FA80F700FA07F6C7F120071EBF20FAAE
:1004600007FC46EA0C062037B6FBF4FCA7EB0507B1
:10047000103F07F01F0BCBF120060CFA0BFB2CFAF8
:1004800006F644BFB3460026202FA4BF5E464FF0B9
:10049000000B5BEA060C08BF4FF0010B19EB0B09D0
:1004A000ABFB027C48EB0608C01B06FB02CC0BFB37
:1004B00003CC71EB0C01C1E70B46024641464846AE
:1004C000BDE8F08B13B54FF000004FF00001AFF323
:1004D0000080BDE81C4070470FB4044910B503AA62
:1004E000029800F069FD10BC5DF814FBBC0200200E
:1004F0000FB41CB5074B06AA7B44694600900598CB
:1005000000F039FD0020694600F048FD1CBC5DF894
:1005100014FB0000A10A00000FB41CB50C0007AAD0
:10052000009001D02044401E074B7B446946019057
:10053000069800F020FD002C03D06946002000F052
:100540002DFD1CBC5DF814FB790A000070B5044653
:1005500085690068C10601D5302600E02026C00765
:1005600007D070BDD4E9012130469047206A401C75
:1005700020626D1EF6D570BD70B5044685690078A1
:10058000C00707D170BDD4E9012120209047206A1F
:10059000401C20626D1EF6D570BD00002DE9F041B3
:1005A0000646002410687529314616A510D0AFF311
:1005B0000080002802DA404213A507E031688A076C
:1005C00001D512A502E0490704D511A5012401E0D7
:1005D000AFF3008000210A2206F1240709E0B0FBF6
:1005E000F2FCB0FBF2F302FB1C00303078541846EA
:1005F000491C0028F3D123462A463046BDE8F04185
:1006000000F04CBA000000002D0000002B0000009C
:100610002000000070B504460D4621461068AFF377
:1006200000802188090502D50F4A7A4402E00E4A6B
:100630007A440E32002104F1240305E000F00F0695
:100640000009965D5E54491C0028F7D120780023EC
:10065000000704D5702D02D009B1022311322046C3
:10066000BDE8704000F01ABA3A3605002DE9F05F97
:10067000894604464FF0000ADFF874B1FB44C0F825
:1006800020A02046E1688847002874D0252806D09D
:10069000D4E901219047206A401C2062F1E700263E
:1006A0005F462046E16888472028054607DB312D54
:1006B00005D2781910F8200C08B10643F1E7B0070D
:1006C00001D526F00406C4F81CA00027C4F818A021
:1006D0002A2D09D028460BF005F938B304EB87081A
:1006E000303DC8F8185019E059F8041B204604EBB7
:1006F00087029161E1688847012F054618D1E069BA
:10070000002820DA26F020061DE0D8F8180000EBBB
:10071000800005EB40003038C8F818002046E1683A
:10072000884705460BF0DEF80028EED1012F0AD0ED
:100730002E2D08D12046E16888477F1C0546022FF0
:1007400046F02006C4DBA069002803DA404246F0E8
:100750000106A061F00701D026F010066C2D0BD029
:10076000682D09D04C2D39D06A2D35D0742D35D057
:100770007A2D33D016E038E0E1682F4620468847CE
:10078000B842054609D16C2F26D04FF48060E1684D
:10079000064320468847054604E06C2F1AD04FF4E4
:1007A000807006430DB3A5F14100192802D8203509
:1007B00046F400664A462946204626604E46FFF724
:1007C000C5FD80B101280BD0F61D26F0070000F111
:1007D000080956E74020E4E78020D8E70020D6E764
:1007E00006F104094DE7284652E7206ABDE8F09F6C
:1007F0001036050070B5064600F04CF90468054651
:1008000030460A22002100F0FFFB2C6070BD40EA58
:100810000103024630B59B0710D14FF0013400E0D0
:1008200008C208C91D1B9D4315EAC41FF8D013F068
:10083000FF0102F8011B0DD01B0AF8E711F8013B7C
:10084000002B02F8013B05D011F8013B002B02F808
:10085000013BF3D130BD10B5431C02E010F8011B81
:1008600071B18107FAD14FF0013202C88C1A8C4362
:1008700014EAC211F9D0C01A0A0603D0C01E10BD76
:10088000C01A10BD0A0401D0801E10BD0902FCD0A0
:10089000401E10BD032A40F2308010F0030C00F01F
:1008A000158011F8013BBCF1020F624498BF11F8AA
:1008B00001CB00F8013B38BF11F8013BA2F1040263
:1008C00098BF00F801CB38BF00F8013B11F00303DB
:1008D00000F02580083AC0F0088051F8043B083A3F
:1008E00051F804CBA0E80810F5E7121D5CBF51F8E1
:1008F000043B40F8043BAFF30080D20724BF11F85B
:10090000013B11F801CB48BF11F8012B24BF00F8BF
:10091000013B00F801CB48BF00F8012B704710B530
:10092000203AC0F00B80B1E81850203AA0E81850E7
:10093000B1E81850A0E81850BFF4F5AF5FEA027CA8
:1009400024BFB1E81850A0E8185044BF18C918C017
:10095000BDE810405FEA827C24BF51F8043B40F8B8
:10096000043B08BF7047D20728BF31F8023B48BF9D
:1009700011F8012B28BF20F8023B48BF00F8012BDB
:10098000704702F0FF0343EA032242EA024200F00A
:1009900002B84FF000020429C0F0128010F0030CDE
:1009A00000F01B80CCF1040CBCF1020F18BF00F862
:1009B000012BA8BF20F8022BA1EB0C0100F00DB811
:1009C0005FEAC17C24BF00F8012B00F8012B48BF6F
:1009D00000F8012B70474FF0000200B51346944613
:1009E0009646203922BFA0E80C50A0E80C50B1F187
:1009F0002001BFF4F7AF090728BFA0E80C5048BF9B
:100A00000CC05DF804EB890028BF40F8042B08BF38
:100A1000704748BF20F8022B11F0804F18BF00F834
:100A2000012B70474FF0013C50F8042B51F8043B68
:100A30009A4215D1A2EB0C03934313EACC130BD1CA
:100A400050F8042B51F8043B9A4209D1A2EB0C0355
:100A5000934313EACC13E7D04FF00000704700BF78
:100A6000D01A01BAB1FA81F101F0180122FA01F0AD
:100A7000CB40C1F12001DBB2C0B2C01A2CFA01F3A5
:100A8000D11A914311EAC311E6D1704770477047FC
:100A90007047704700487047842F01202DE9F047C8
:100AA0000D4699469246044600F1240801688806DE
:100AB00004D5E06921F01001216000E00120A84286
:100AC00001DD471B00E00027A1697A1902EB09004C
:100AD000081AA0612078C00602D42046FFF736FD30
:100AE000002608E0D4E901211AF806009047206AA0
:100AF000401C761C20624E45F4DB2078C0060AD5E7
:100B00002046FFF723FD06E0D4E90121302090477D
:100B1000206A401C2062381EA7F10107F4DC07E0C0
:100B2000D4E9012118F805009047206A401C206292
:100B3000281EA5F10105F3DC2046FFF71DFD2078F6
:100B4000000602D50220BDE8F0870120FBE77047D0
:100B50002DE9FF4F0C461E464FF0FF378BB0D2E910
:100B60000001DDF860800A908A46C1F30A5505B994
:100B70003D46002108464FF00000BAF1000F00F496
:100B8000400005DA00EB80004FF4400101EA50001C
:100B90004FEA9059B9F1010F00DDB9460A9850EAC1
:100BA0004A000ED044F61050A5F2FF3545432F14ED
:100BB000B8F1000F1ED07542291E1EDDC9F10002DA
:100BC0001CE0B8F1010F4FF0000001D0302103E02C
:100BD000F24305E02154401CB042FBDB30460022CA
:100BE000002121540B99C1F80880C1E900200FB001
:100BF000BDE8F08FBD1B6D1CDEE74A4600DA694296
:100C000006A800F06DFB06AB93E8070003AB83E892
:100C1000070050460A9901F002F98DE80700A0F597
:100C200000501F3800900398002D0ADD42F21F018A
:100C30004A460844002303A90390684601F0AEFB2E
:100C400009E0A0F500504A461F38002303A903908D
:100C5000684601F0CDFB8DE807000004000C03D0CE
:100C60004FF0FF30410800E01046B8F1000F03D00C
:100C70000022009215461EE0751E05D400F008FA09
:100C8000303262556D1EF9D5B3460122084302D0B9
:100C900000227F1C04E02078302801D100227F1E32
:100CA000002A099784D01DE0112D07DA00F0F0F931
:100CB000303262556D1C50EA0102F5D1084302D072
:100CC0000098C8B10EE00021681E05E0235C625C5C
:100CD00063542254401E491C8142F7DBAB46A81BDB
:100CE000401E0990002004F80B000B98099AC0F8E8
:100CF0000880C0E9002B7AE711264FF0000857E77B
:100D00002DE9F04F88460446D21D22F0070191B02C
:100D1000D1E90001CDE90A010AF08BFC02460B98EB
:100D2000C00F01D02D2007E02068810701D52B20BE
:100D300002E0202101EAC000032A099001D0072A1D
:100D400005DB03464146204600F0E8F90BE1207838
:100D5000800601D5E06900E00620B8F1650F814604
:100D600006D0B8F1660F18D0B8F1670F70D131E036
:100D70000020B9F1110F009001DB112301E009F10E
:100D800001030AAA01A90CA8FFF7E2FEDDE90C7035
:100D9000002609F10105834647E001204B460090FB
:100DA0004FF000470AAA01A90CA8FFF7D1FEDDE920
:100DB0000DB00C995D46002610B909F101000D181F
:100DC000B9EB050003D4C0F1FF3609F10105A5EB2D
:100DD00009002BE0B9F1010F01DA4FF00109002001
:100DE000B9F1110F0090484601DD112300E00346E0
:100DF0000AAA01A90CA8FFF7ABFEDDE90C704D466D
:100E000000268346207800070AD4AB4500DA5D4609
:100E100001A8012D04DD411911F8011C302907D06A
:100E20004F4502DA17F1040F04DA012082460FE081
:100E30006D1EEEE7002F02DCED1B3E4403E0781C44
:100E4000A84200DD7D1CB81B00F1010A4FF00047ED
:100E50002078000703D4AA4501DB4FF0FF3A0021B8
:100E6000B7F1004F0DF143088DF8431024D0022054
:100E70002B23002F01DA7F422D230A21021EA0F12D
:100E8000010000DC5FB197FBF1FC97FBF1F201FB85
:100E90001C7C17460CF1300C08F801CDEEE7A8F1E8
:100EA000010003702188090501D5452100E0652175
:100EB000A0F1010800F8011C09980FA9A1EB08078F
:100EC000FF1D00B10120411901EBEA70A16938440E
:100ED000081A401EA0612078C00602D42046FFF701
:100EE00035FB099828B1D4E901219047206A401CBC
:100EF00020622078C00622D52046FFF727FB1EE09F
:100F0000002E04DBB34502DD01A8805D00E0302047
:100F1000D4E901219047206A401C2062761CAAF186
:100F200001005FEA000A0AD100F0AEF8C06801686B
:100F3000405CD4E901219047206A401C2062281EB1
:100F4000A5F10105DCDC07E0D4E9012118F8010B6B
:100F50009047206A401C2062381EA7F10107F3DC8D
:100F60002046FFF709FB032011B041E601694A1C46
:100F700002610878704700B58FB0CDE901310021DA
:100F8000059105497944CDE9031011466846FFF7FC
:100F90006DFB0FB000BD0000E5FFFFFF0A6802F81F
:100FA000010B0A607047D1E900239A4202D2531C18
:100FB0000B60107070470000074B70B50D467B4406
:100FC000FFF7D9FF0446284600F0FCF910B14FF0B6
:100FD000FF3070BD204670BDF77701007CB5054637
:100FE00000236846CDE9003300F046F969462846FB
:100FF0000AF0F2FB7CBD000000487047842F0120FE
:10100000500728E8010000072DE9F04791460F46F8
:1010100080460446002614F8015B2DB100F02CF840
:101020000068405DC007F6D12B2D02D02D2D18D0C1
:10103000641E4A463946204600F0B0F827B13968A8
:10104000A14201D1C7F800804FF0020471050BD511
:101050004042002803DDFFF71DFD0460A007BDE846
:10106000F08746F48066E4E70028F8DAFFF712FD1F
:1010700004606FF00040F2E710B500F005F8001DC5
:1010800010BD00BF055B030000487047A42F01207E
:1010900030B5B0F10A024FEA900E71F100034EEA4A
:1010A000817EB0EB0E0061EB91014FEA101E4EEA1B
:1010B000017E10EB0E0041EB11114FEA102E4EEAAB
:1010C000016E10EB0E0041EB11214FEA104E4EEA7B
:1010D000014E10EB0E0041EB1141401841F10001AF
:1010E0004FEAD00040EA41704FEAD10110EB800591
:1010F0004FEA810444EA907444EB01046D1944EB17
:101100000404521BA3414FF0000348BF0A3200D52C
:1011100030BD401C41F1000130BD00002DE9F0411F
:101120001F46044603260168072A01F4006004DB19
:1011300008B116A505E016A503E008B115A500E065
:1011400015A521F010002060A069C01EA0610FB19C
:10115000401EA0612046FFF7F9F94FB1D4E9012103
:1011600038469047206A401C2062C01C206206E07E
:10117000206AFAE7D4E9012115F8010B9047761EA1
:10118000F8D22046FFF7F8F9BDE8F0814E414E0055
:101190006E616E00494E4600696E66002DE9F05F93
:1011A000824615468B4600270AF10104B9460078AD
:1011B000302801D09DB113E014F8010B01277828E5
:1011C00003D0582801D045B10AE00DB1102D07D148
:1011D000002714F8010B102502E0082500E00A257D
:1011E0000026B0460EE005FB080005FB06F10127CE
:1011F0001FFA80F801EB1046B6F5803F00D3B946E0
:1012000014F8010B294600F01AF90028EBDABBF1BB
:10121000000F05D00FB1641E00E05446CBF800402B
:10122000B9F1000F06D0FFF735FC02210160C81E9E
:10123000BDE8F09F48EA0640FAE700000FB400233B
:1012400000B589B00CA900910B99CB60214B7B4470
:101250000693214B7B44079304236FF00042CDE9B2
:1012600001321E4A7A446B4608920246002035F04D
:1012700013FD09B05DF814FB70B506464FF0FF3062
:1012800015460C46324686B00091CDE9010169460B
:101290000020049004A8FFF7D1FF0246049821180B
:1012A00025B108B1084600E02046286004980028CF
:1012B0000DD0002A02DD0098884208D03246081B73
:1012C00069460094CDE9010404A8FFF7B7FF06B012
:1012D00070BD00000902000021020000C5010000ED
:1012E0002DE9F047814616468AB0354878440DC846
:1012F0008DE80D0032487844801C03AC0DC884E8AA
:101300000D0041F69B300844372190FBF1F290FB31
:10131000F1F5A5F1800501FB12041B3C02D56442E6
:10132000012000E00020DFF898A080460027FA4462
:10133000AAF1BE0A0EE0E0070AD03246684607EB83
:10134000470101230AEB810101F052F88DE8070003
:1013500064107F1C002CEED1194F7F44AE3F19E082
:10136000E80715D007EB04100DF1180A90E80E00FD
:101370008AE80E00C068F04201D198190890324600
:10138000012306A903A801F033F803AB83E80700A3
:101390006D10641C002DE3D14FF001033246694605
:1013A000B8F1000F03A802D000F0F8FF01E001F04F
:1013B0001FF8C9E90001C9F808200AB0BDE8F087A4
:1013C000302A0500007B00F0800070477546FFF76B
:1013D00013FEAE4605006946534620F007008546D9
:1013E00018B020B5FEF7EEFFBDE820404FF0000634
:1013F0004FF000074FF000084FF0000B21F00701FD
:10140000AC46ACE8C009ACE8C009ACE8C009ACE83F
:10141000C0098D46704710B5FFF73CFB006810BD52
:1014200010B50446FFF736FB046010BD10B5044646
:10143000FFF722FE0068005D00F0010010BD3A28B1
:1014400000D2303820F02002412A01D3A2F1370027
:10145000884201D34FF0FF307047426842B10168C3
:1014600011F8013B23B1521EC0E900121846704723
:101470000121C160881E704742685AB1C368016883
:1014800043B983688B4205D0491E521CC0E9001243
:10149000002070474FF0FF30704710B50446AFF39F
:1014A00000802046BDE81040FEF778BF2DE9FF4FD1
:1014B00006468BB00878FF2806D0491C2D2805D099
:1014C00000244FF0000908E000200CE00124F8E7B8
:1014D00009EB8903491C00EB43090878FF28F7D181
:1014E00014B1C9F100008146107800252C46AA46A7
:1014F00029462D2801D02B2804D1521C2D2813D089
:10150000002082468B461078FF280FD04FF0000C49
:101510000A21521CA5FB017804FB018105FB0C117B
:10152000C5194BEB0104EEE70120EAE7002108466C
:101530004FF00000BAF1000F02D000EB800040082D
:10154000C0F38157012F01DD4FF0FF370E9955EAA7
:10155000040009EB01080BD04FF0020918F5FA7FDF
:1015600016DA4FEACA70002F706008DD012007E02C
:101570004FEACA70C6E900B00FB0BDE8F08F002096
:101580003060FFF787FAC0F800901821084616E08F
:10159000B8F5FA7F18DD002F02DAF748784401E049
:1015A000F6487844D0E90010C6E9001040EACA7055
:1015B0007060FFF76FFAC0F80090142108460FB072
:1015C000BDE8F04F35F003BB002108464FF00000A6
:1015D000B8F10001099002DAC7F1000200E03A46D2
:1015E00001DAC8F1000106A8FFF77AFE06AB93E81E
:1015F000070003AB83E8070044F23E005BEA040106
:101600000090584604D144F21E012C465D460091DC
:10161000210C0904014306D10099240444EA15442D
:101620002D041039009104F07F41014306D1009947
:10163000240244EA15642D020839009104F0704137
:10164000014306D10099240144EA15742D01091FB4
:10165000009104F04041014306D10099A40044EAFE
:101660009574AD00891E009104F00041084304D137
:1016700000986D196441401E00904FF001033A46F6
:101680006846B8F1000FCDE9014503A902DD00F07D
:10169000C4FE01E000F097FEBAF1000F04460D46CB
:1016A00001D084F00044002108464FF00000099961
:1016B00040F2FF77484010F00C0F07D124F00040B3
:1016C000284303D0C4F30A50B84212D1FFF7E2F91D
:1016D000C0F80090C4F30A50B8420AD1A848784430
:1016E000D0E90010C6E9001004F000410843706022
:1016F00042E7C6E900543FE72DE9FF4F1F464FF090
:10170000000A4FF0FF38454691B0D7E90146CDF8C1
:101710003CA0FFF7B9FCC0680168405C1090B96953
:1017200012986D1C8847396A814688470028F6D18F
:10173000B9F1FF3F0AD0002E24F4D06411DDB9F1D5
:101740002B0F08D0B9F12D0F0BD102E0404615B098
:1017500013E744F48064B96912986D1C8847761EBB
:101760008146600504A901D52D2000E02B20002E24
:1017700001F1010B0DF130088DF810003FDDB9F1DA
:10178000690F08D0B9F1490F05D0B9F16E0F02D039
:10179000B9F14E0F1CD13B4601A8009580E85002DC
:1017A000DDE912126FF0020035F07AFAC11CCED1D9
:1017B0000EE0B96912986D1C884781461398761E11
:1017C00044F4007405600F98401C002E0F9016DD45
:1017D000B9F1300FEDD0B9F1780F02D0B9F1580F4F
:1017E0000DD10F9801280AD13B46CDE90054DDE91F
:1017F0001212001F029635F051FAC11CA7D11099A0
:1018000089453ED144F0800406E01399681CAAF192
:10181000010A44F400740860B9696D1C1298761EC0
:10182000884730288146F0D02BE01099894505D1B2
:10183000200603D4761E44F0800418E048460AF0DF
:1018400051F808B3761E0DF123018B4544F4007462
:1018500008D2A9F130000BF8010B200607D5AAF138
:10186000010003E0200602D40AF101008246A0052F
:1018700002D51399681C0860B96912986D1C8847D5
:101880008146002ED1DC53E0002E51DDB9F1650F09
:1018900002D0B9F1450F4BD1A00549D5B9696D1CEE
:1018A0001298761E24F440748847002E81460CDD81
:1018B0002B2804D0B9F12D0F07D144F48074B969F5
:1018C00012986D1C8847761E8146E00501D52D21B2
:1018D00000E02B2108F8011BCDF8008021E0761EE6
:1018E0000DF13901884544F400740CD2A9F130009F
:1018F00010F0FF0088F8000002D10099884509D94E
:1019000008F1010806E0E00501D51E4801E042F2B9
:101910000F708246B96912986D1C884781461398EA
:101920000560002E04DD484609F0DCFF0028D6D112
:10193000F96912988847FF2053468BF8000088F811
:10194000000000200A900B9004AA0CA90AA8FFF737
:10195000ADFDA00502D46FF00100F8E614F0240FED
:1019600012D0E0071CD13868DDE90A12031D3B6084
:101970000068C0E9001213E0F4350500E635050003
:10198000AA340500F1D8FFFF0AA9684609F024FF30
:10199000E00705D13868009A011D396000680260CF
:1019A0002846D4E62DE9FF4F1F464FF03C0987B08B
:1019B0004FF00042DDE9141001F10108DDF858A0F4
:1019C00002EA4050039000200590834605460446F5
:1019D0000490B969461E08988847AAF1010A029046
:1019E000BAF1000F3BDD02982E2815D01021FFF729
:1019F00026FD00282EDB4FF0010B0599014317D07F
:101A0000B9F1000F0BDB4A46C11700F0F5F90543A9
:101A10000C43A9F1040905E0012004900BE008B192
:101A200045F0010501200590049820B9361D02E01B
:101A3000049800B1361FB969089808F10108884771
:101A4000BBF1000FAAF1010A0290C9D00999C1F8AF
:101A50000080C5E70298702808D0502806D0F969A0
:101A600008988847BBF1000F14D04FE00020029087
:101A70000120BBF1000F049009D0B969089808F162
:101A800001088847AAF10109B9F1000F07DCF969DB
:101A9000089888476FF001000BB0BDE8F08F2B2845
:101AA00004D02D280CD14FF0FF300490B96908986C
:101AB00008F101088847A9F10109B9F1000FE6DD35
:101AC000411CE4D00A21FFF7BAFC0028DFDB0299B1
:101AD00008F1010801EB810100EB41000290B969B6
:101AE000089888470A21FFF7AAFC099AA9F1010979
:101AF000B9F1000FC2F8008001DD0028E7DAF969CA
:101B0000089888470499029800FB016655EA04008A
:101B100004D004F04041090002D006E0039898E0A8
:101B2000A40044EA9574AD00B61E04F0004108001C
:101B300002D16D196441761E159810F0240F03D060
:101B40004FF00B095C4803E04FF028096FF07D006F
:101B50008246564507DAAAEB06018944B9F1410FDE
:101B600001DD4FF0410901200021A9F1010200F03F
:101B700043F9024628400B462140084301D0012189
:101B800000E00021501E029143F1FF312840214026
:101B9000084301D0012000E000200299834651EA69
:101BA0000B014FD0002108464FF00000039900F4CC
:101BB000400039B100EB80004FF4400100EBD070E1
:101BC00001EA60008015012802DD4FF0FF3000E0DF
:101BD00013D0401C36D0029860B3BBF1000F0CD17B
:101BE0004A460120002100F007F92840214008431F
:101BF00001D0012000E00020E0B101204A46002190
:101C000000F0FAF8034640190A4661412D1A8C414A
:101C100011D3B9F1400F09DD159810F0240F02D04F
:101C2000AAF1340603E0AAF1170600E0761C0025AD
:101C30004FF0004406E05B1E42F1FF3220EA03054C
:101C400021EA0204CAF10100B04206DA1B490398F6
:101C500008430190002000900EE0039AC4F3D321C2
:101C6000E80A0A43164940EA44500A433146CDE99E
:101C70000002684609F0BCFD159810F0240F0BD047
:101C80001598C00715D13868DDE90012031D3B60C7
:101C90000068C0E900120CE002A8694609F09CFD4A
:101CA0001598C00705D13868029A011D396000688F
:101CB00002604046F0E6000002FCFFFF0000F07FFB
:101CC0000000F03F2DE9FF4F92461D4685B04FF0D2
:101CD0000041DDE9124BDDE914727F1E01EA4B5031
:101CE000414940F0FF4940EA0108002122F020006C
:101CF0004928049102D04E2828D04CE03BA0012670
:101D000007C88DE80700A9690698641C88477F1EEC
:101D1000014606D41DF8060018B121F020018142C9
:101D20000BD0E96906988847032E34D0082E32D0AC
:101D30006FF0010009B0BDE8F08F761C032E01D0D2
:101D4000082EE0D1601CCAF80000DCE7A9690698FB
:101D5000641C88477F1E2AD420F02000412826D109
:101D6000A9690698641C88477F1E20D420F02000B3
:101D70004E281CD1A9690698641C88477F1E48F428
:101D8000002849F48009CAF8004001D4282806D068
:101D9000E969069888475FEACB7012D022E0A9690A
:101DA0000698641C88477F1E01D4002803DAE9697D
:101DB00006988847BCE72928F1D1641CCAF800407E
:101DC000E9E71BF0240F07D028680499031D2B6056
:101DD0000068C0E9001805E02868021D2A60006854
:101DE000C0F800902046A5E70000F07F494E464924
:101DF0004E49545900000000B2F120030AD5C2F147
:101E0000200301FA02F120FA03F300FA02F041EA9A
:101E10000301704700FA03F14FF0000070475FEADA
:101E2000400C08BF91F0000F4FEA8C234FEAC1220B
:101E300043EA51514FEA1C5018BF00F5F0404FEAF9
:101E4000300018BF41F000415FEA6C5C00F029806F
:101E5000BCF1FF3F08BF40F080407047130C06BF45
:101E600012044FF0100C4FF0000C130E04BF1202BE
:101E70000CF1080C130F04BF12010CF1040C930FAA
:101E800004BF92000CF1020CD30F04BF52000CF1FE
:101E9000010C11464FF00002A0F11F00A0EB0C0056
:101EA000704711F0004F08BF704731F000413FF418
:101EB000D5AF0B0C06BF09044FF0100C4FF0000C0F
:101EC0000B0E04BF09020CF1080C0B0F04BF090133
:101ED0000CF1040C8B0F04BF89000CF1020CCB0F2A
:101EE00004BF49000CF1010CCCF12003A0EB0C0065
:101EF00022FA03F302FA0CF241EA030100F10100B5
:101F0000704720F07F4C80EA030023F07F47ACEB62
:101F1000070303F57C5300F0004003F1FF032DE9B4
:101F200080494FEA154B09B44FEA144325EA0B4E9A
:101F300024EA03480FF2042606EB132749083E78EB
:101F40005FEA320203FB0667C7F5000707FB06F6E8
:101F50004FEA54374FEAD64606F1020607FB066CF5
:101F6000CCF1005C4FEA1C472CEA074C07FB06F457
:101F70000CFB06F504EB15464FEA961634BF00201D
:101F80004FF000404FEAD13706FB07FC4FEA1C4CEC
:101F90000CFB0BF7D21B03FB0CF761EB07010CFBEF
:101FA0000EF7B0EB074072EB17420CFB08F734BF9B
:101FB000A2EB0742B2EB074261EB17414FEA0C4438
:101FC0004FEA910706FB07FC4FEA1C4C0CFB0BF792
:101FD000B0EBC74072EB573203FB0CF734BFA2EBF8
:101FE000C742B2EBC74261EB57310CFB0EF7B0EBC7
:101FF000C70072EB57720CFB08F734BFA2EBC702A5
:10200000B2EBC70261EB5771039F4FEA816141EA6E
:10201000921104EBCC044FEAD1374FEA826206FBFF
:1020200007FC42EA90124FEA80604FEA1C4C0CFB1E
:102030000BF7D21B03FB0CF761EB07010CFB0EF750
:10204000B0EB074072EB17420CFB08F734BFA2EB72
:102050000742B2EB074261EB17414FEA8C554FEA5A
:10206000910704EB9C2406FB07FC4FEA1C4C0CFB7D
:102070000BF7B0EBC74072EB573203FB0CF734BFE2
:10208000A2EBC742B2EBC74261EB57310CFB0EF734
:10209000B0EBC70072EB57720CFB08F734BFA2EB32
:1020A000C702B2EBC70261EB577115EB4C254FEA43
:1020B000816141EA92114FEA82624FEAD13742EAE6
:1020C000901206FB07FC44F100044FEA80604FEADF
:1020D0001C4C0CFB0BF7D21B03FB0CF761EB07014D
:1020E0000CFB0EF7B0EB074072EB17420CFB08F746
:1020F00034BFA2EB0742B2EB074261EB174115EB8D
:102100001C154FEA813141EA92414FEA823242EA9C
:1021100090424FEA80304FEA0C7644F1000448EADE
:1021200003434EEA0B484FF0000EB2EB080C71EB84
:10213000030724BF624639464EEB0E0E4FF0000BEC
:102140000018524149414BEB0B0BB2EB080C71EB01
:1021500003077BF1000B24BF624639464EEB0E0E9F
:102160004FF0000B0018524149414BEB0B0BB2EB07
:10217000080C71EB03077BF1000B24BF6246394664
:102180004EEB0E0E51EA020718BF46F0010616EBA1
:102190000E7655F1000254F1000103D5BDE8890126
:1021A000BDE80088BDE88901BDE80048B619524184
:1021B00041EB0101A3F10103704780807F7E7D7CAC
:1021C0007B7A7978777676757473727171706F6EC9
:1021D0006E6D6C6C6B6A6A69686867666665646474
:1021E000636362616160605F5F5E5E5D5D5C5C5BFE
:1021F0005B5A5A595958585757565655555554546D
:10220000535352525251515050504F4F4F4E4E4DCA
:102210004D4D4C4C4C4B4B4B4A4A4A494949484816
:102220004847474747464646454545444444444356
:1022300043434342424242414141000046EA06468E
:10224000A3F570534FEA164646EA42564FEAD222A9
:1022500042EA415210B54FEAD121A3F1010300F047
:102260002FF820F0004000F1020C00F0004701EBD5
:1022700000501146BCF5006F40EA070000D210BDC7
:10228000BAF1000F0AD01CB503B44FF004004FF0B0
:1022900004014FF000000FBCBDE810404FF00001FA
:1022A000BBF1010FB9BF04484FF0FF3103480021D3
:1022B00040EA070010BD00BFFFFFEF7F0000F07F86
:1022C000002B9C4630D477002BD01CB54FEA370743
:1022D00003B44FF010004FF01001BAF1000F06D018
:1022E000BCF1000FDCBF40F0080040F008014FF0E7
:1022F00000000FBCBDE810400BF1010BBBF1010F5A
:1023000008BF5FEA170722BF12F1010211F10101B4
:102310004FF0004143F1000300F0004043EA0000A9
:102320007047F9D35708D0E746EA064613F1400F45
:102330004FEA16461FDD13F1200FDFBF16430A4692
:10234000002120335B42BED0C3F1200746EA064697
:1023500002FA07F74FEA164646EA0706C3F12007D6
:1023600022FA03F201FA07F721FA03F14FF0000312
:1023700042EA0702A7E746EA020646EA06464FEAAD
:10238000164646EA0106BCBF46EA0646360C4FF042
:1023900000034FF000024FF0000194E72DE9804C5C
:1023A0009A46934670B491E8380007C831EA400C69
:1023B00048BF34EA430C03D5FFF7A3FDFFF780FFC6
:1023C000F0BCBDE8008C2DE9804C9A46934670B471
:1023D00091E8380007C831EA400C48BF34EA430CA2
:1023E00003D5FFF78EFDFFF729FFF0BCBDE8008C99
:1023F0002DE9804C9A46934670B491E8380007C89E
:1024000010F0804F08BF13F0804F03D100F01AF88E
:10241000FFF756FFF0BCBDE8008C2DE9804C9A46D2
:10242000934670B491E8380007C810F0804F08BF99
:1024300013F0804F03D100F005F8FFF7FFFEF0BC6A
:10244000BDE8008C20F07F4780EA030023F07F4C3A
:1024500007EB0C03A3F57C5300F00040A3F1FE034F
:1024600092F0000F00F0B38095F0000F00F077803D
:102470002DE901494FEA11404FEA144621EA00488C
:1024800000FB06FC24EA064708FB06F607FB08F8F3
:1024900000FB07F718EB06484CEB164C4FEA124BC3
:1024A00018EB07484FEA15464CEB174022EA0B4E53
:1024B0000BFB06FC25EA06470EFB06F607FB0EFEA5
:1024C0000BFB07F71EEB064E4CEB164C4FF00006CD
:1024D0001EEB074E4CEB174B18EB0B0840F10000BE
:1024E00018EB0E0B58EB000840F100008F1A4FF06C
:1024F00000013CBFC943661B14BFB5EB040C0021AF
:102500003CBFC943F61B4FEA17444EEA8E0E27EA3A
:1025100004454FEA1C4704FB07622CEA074C05FB05
:1025200007F70CFB05F604FB0CFC16EB074642EB29
:10253000174216EB0C4642EB1C421BEB060658EB0F
:102540000202414146EA9E0601D5BDE80189B6195D
:10255000524141EB0101A3F10103BDE801894FEABA
:1025600014454FEA114724EA054621EA074C05FBCA
:1025700007F406FB07F70CFB06F105FB0CFC11EB5F
:10258000074144EB17444FEA124711EB0C4144EB6F
:102590001C4422EA074C05FB07F206FB07F70CFB7D
:1025A00006F605FB0CFC16EB074642EB174216EB52
:1025B0000C4642EB1C456A1854F1000148BF7047B5
:1025C000B619524141EB0101A3F10103704795F0A7
:1025D000000F37D04FEA11424FEA144721EA024672
:1025E00024EA074C02FB07F106FB07F70CFB06F495
:1025F00002FB0CFC14EB074441EB17414FEA154773
:1026000014EB0C4441EB1C4125EA074C02FB07F597
:1026100006FB07F70CFB06F602FB0CFC16EB074665
:1026200045EB174516EB0C4645EB1C42121951F1D0
:10263000000148BF7047B619524141EB0101A3F1B7
:10264000010370474FEA14454FEA114724EA054653
:1026500021EA074C05FB07F106FB07F70CFB06F226
:102660004FF0000605FB0CFC12EB074241EB174153
:1026700012EB0C4251EB1C4148BF7047921841EBE2
:102680000101A3F10103704771B5194E4FF40065C4
:102690000022294681B0304603F09FF8154A0123F5
:1026A00015484FF47A7401A9009404F0F7FF58B963
:1026B00006200DF0EFFE0F4A02230F48A2F1080199
:1026C000009404F0EBFF08B100207CBD01222946F4
:1026D000304603F082F807484FF6FF7103784278DE
:1026E00003F07F0001EA00201044C0087CBD000018
:1026F00000080258A4020020580A002070B50546C0
:10270000FFF7C2FFB0F5805F044604D302462946B6
:1027100002A0FDF7E1FE204670BD000041443738BD
:1027200034335F726561645F76616C75652825304E
:10273000325829203D2025640D0A000070B5002480
:1027400006F0FAF9304A0521204606F039FA2F4CF6
:1027500001200103627806F033FA2278022041F268
:102760000F0106F02DFAE278032041F2010106F094
:1027700027FA6279042041F2020106F021FA228E42
:10278000052041F2030106F01BFAA28E062041F259
:10279000040106F015FA1E4D072041F20D0195F9CE
:1027A000072006F00DFA2279082041F2050106F013
:1027B00007FAA279092041F2060106F001FAB4F9FC
:1027C00032200A2041F2070106F0FAF9E28E0B20CE
:1027D00041F2080106F0F4F995F908200C2041F2C5
:1027E0000E0106F0EDF90B490D200A7841F21001B7
:1027F00006F0E6F90E200D22002106F0E1F906F0C0
:10280000C3F9012070BD000055AAA55AF4020020AA
:10281000EC2E012038050020F8B506F08DF9294C82
:102820000025294E6946284606F092F995B1002800
:1028300019D0411C17D0A0F5805011283DD2DFE8F7
:1028400000F0181B1E21242A2D30333C3C3C3C2731
:1028500036153900052803D11C490098884203D059
:102860001BA0FDF739FEF8BD0125DBE700982070BD
:1028700023E00098607020E00098E0701DE0009870
:1028800060711AE00098208617E00098A08614E096
:102890000098F07111E0009820710EE00098A0718E
:1028A0000BE00098608608E00098E08605E000985C
:1028B000307202E01649009808706D1CB5F5007F73
:1028C000B0D3F8BDF4020020EC2E012055AAA55A81
:1028D0004150505F434F4E4649475F6C6F61643AC9
:1028E000206461746120696E2077726F6E67206664
:1028F0006F726D6174206F72206E6F2064617461FD
:102900002062652073617665642E2E2E0D0A00000C
:102910003805002010B532F005FE08F0D5FDBDE801
:102920001040FFF779BF814201D9081A00E0401A30
:1029300080B2B0F5004F02D34FF6FF71081A70470E
:1029400001483C2105F0DCB82C0B00200149096846
:10295000486270472C0B0020F0B5294E0022402120
:1029600087B0304602F039FFC82001F0EDFF0122A8
:102970003046402102F031FFC82001F0E5FFBA20C7
:1029800017F05CF81F4F4FF000051F4CA0B1282036
:1029900017F054F890B1E5701CA0E178FDF79CFDAC
:1029A00000F0B0F8207100F0C3F8C2B26271217972
:1029B0001CA0FDF791FD0CE0BA2000E02820B870C3
:1029C000E070E9E706A905A800F046F8642001F0E8
:1029D000BBFF2021304602F0F3FE0028F2D0012692
:1029E0006946F0028DE86100154802F0D3FD4FF60C
:1029F000FF70E08020812670657007B0F0BD000098
:102A00000010025894E60020CE02002047543931CD
:102A1000312041444452455353205B253032585DA8
:102A20003A2000004944203D20253038582C2056BB
:102A3000455253494F4E203D20253034580D0A0051
:102A4000000C0258034AD3880380108908800120B3
:102A500070470000CE0200202DE9F0410822884690
:102A60002249054648F24E1000F0F0FD1F490020B3
:102A7000012620390F46087017F05CF807F1400076
:102A8000807817F02DF817F085F8812017F028F8D6
:102A900017F080F84E2017F023F817F07BF8002489
:102AA000385D17F01DF817F075F8641CE4B2B442F5
:102AB000F6D317F059F80D484FF4F073C2788178C7
:102AC0000479407901EB02218AB29A4204EB00209A
:102AD00081B200D91A464FF48870814200D901466C
:102AE0002A800020A8F80010BDE8F08174E60020DC
:102AF0000348007808B100207047012070470000AB
:102B0000CE0200200949042248F2401010B500F01E
:102B10009DFD0648C17884784278037804EB012053
:102B200002EB002003EB002010BD000074E6002043
:102B300008B50222694648F2441000F087FD9DF86E
:102B400001109DF8000000EB012080B208BD0000DC
:102B500070B5154CA078401CC0B2A0700A2817D3DD
:102B6000124800254FF40061A57002F029FE21787B
:102B700081420ED06178491CC9B26170052909D320
:102B800065700128207005D14FF6FF70E08020812C
:102B900070BD65700028FBD10349BDE87040083165
:102BA000881EFFF759BF0000CE020020000C02581B
:102BB00001490968C8637047E00A0020FF220748FE
:102BC00010B59102FDF7DDFE0548082105F0E0F89B
:102BD000BDE8104003A0FDF77FBC0000000000240A
:102BE000E00A00204C5444435F696E6974202E2E25
:102BF0002E2E2E2E2E2E2E2E0D0A000002480121E2
:102C000045F6A52204F05CBBAC09002001A0FDF74D
:102C100063BC0000534452414D2077696C6C206EB8
:102C20006F74206265207573652E2E2E2E0D0A009E
:102C300001A0FDF751BC0000534452414D20746582
:102C40007374206661696C65642C62656361757379
:102C500065206E6F742075736520746865207364D9
:102C600072616D0D0A0000000C4A10B5D388A3F5FF
:102C70007F44FF3C03D0834203D9181A02E00020AE
:102C800010BDC01A83B21089884201D9401A00E0F1
:102C9000081A80B2184480B210BD0000580200200B
:102CA000034A12780AB1FFF7CDBE00F065B8000004
:102CB000D1020020074810B5007838B1FFF718FF9F
:102CC000040001D008F03AFC204610BD00F05CF88A
:102CD000F6E70000D10200200348007808B1FFF7B2
:102CE00037BF00F057B80000D102002010B500F047
:102CF000B9F8FFF731FE04480078002803D1BDE899
:102D0000104007F061BC10BDD10200201548002220
:102D100010B540F2FF11C0F80822C0F80422C0F834
:102D20000022C0F80C12352002F0F8FF00223520F6
:102D3000114603F001F80C48102201680B6843F0BB
:102D400010030B600068026212010849064805F092
:102D500013FCBDE81040064800224FF4806102F0E9
:102D60003CBD000020E40020080C002020E20020F0
:102D70000018025870470000024AD3880380108967
:102D80000880704758020020014880787047000092
:102D90005802002070B51E4CE078401CC0B2E070B4
:102DA0000A2818D90026E670354607F013FD0128D9
:102DB00000D10125A07885420ED03DB12079401C7C
:102DC000C0B22071052808D3A57006E0A5704FF6A3
:102DD000FF70E080208170BD2671A0780128FAD1B3
:102DE000002007F087FC0A4D0C35E98AA889FFF717
:102DF0003BFF1E2805D96079401CC0B260710328D2
:102E0000E9D3A889E080E88A2081667170BD00005E
:102E100058020020054800B50068406A80B214F0EE
:102E200071FB14F09DFB80B200BD00002C0B002054
:102E300010B5FFF7C3FEFFF769FFFFF7E7FE05F0E8
:102E400057FEFFF753FF0CF09FF8FFF779FDFFF7F0
:102E5000EFFE21F09FFC28F01DFCBDE8104028F09B
:102E60003BBCFEE70F4810B586B0016841F0100189
:102E700001600068112100220B4C00F01000059049
:102E8000022310208DE80F006946204602F082FBE5
:102E9000202069460090204602F07CFB16F064FE7C
:102EA00006B010BDE04402580010025870B586B05C
:102EB00016460C46054618216846FDF78CFD002C89
:102EC00051D0E068000C0390206800210090684613
:102ED00004E04318725C491CC9B21A74039A8A420E
:102EE000F7D8224885421ED12148694600F5805412
:102EF000D4F80C28D4F80838521C934213D0D4F8D4
:102F0000042804F6040402EB420200EBC20090F82D
:102F100000F01822FDF703FD94E80700401C104064
:102F2000491CC4E90001134885421CD1124C694672
:102F3000D4F80C0CD4F8082C401C824213D0D4F8DE
:102F4000040C00EB400004EBC00090F800F01822E5
:102F5000FDF7E5FC04F6044494E80700401C10402B
:102F6000491CC4E9000106B070BD000090070020B4
:102F7000ACE6002030080020CC1601201CB5002251
:102F800000928DF80010022101926A468DF801002E
:102F9000002000F042F81CBD2DE9FC4100250DF198
:102FA000040E089C00F5C06001958DF80440260AC7
:102FB0008DF80560270C8DF806704FEA146C8DF8BB
:102FC00007C0CDF800E000F002F8BDE8FC817CB558
:102FD0000546144600200090260A069A8DF8001037
:102FE0008DF801408DF8026001908DF80330107863
:102FF0008DF8040050788DF8050090788DF8060063
:10300000D0788DF80700012001F09EFC08212A46A7
:1030100068460BF0F7FE00207CBD7CB505460C46EB
:103020000020694603460090019003E0D65C581CDE
:10303000CE54C3B2A342F9D3012001F085FC2A4645
:10304000214668460BF0DEFE00207CBD0BF0DABEA8
:1030500008B50022B323009240F256328DF80030BA
:103060008DF8011003218DF80200024803686846BC
:10307000984708BD3403002005490978002905D088
:10308000044902468B690021AB20184770470000B5
:10309000D80200203403002008B5002346F2830242
:1030A00000912321FFF778FF08BD08B5002346F201
:1030B000400200912B21FFF76FFF08BD08B50023E8
:1030C00046F2840200912321FFF766FF08BDF8B5A0
:1030D00000230C46064646F2600200912F21FFF7BE
:1030E0005BFF032C4FF47A750BD0012C17D12946C6
:1030F0003046FFF7D1FF29463046BDE8F840FFF7DC
:10310000DDBF29463046FFF7C7FF29463046FFF7A7
:10311000D5FF3046BDE8F840002100F001B8F8BD09
:103120000A460A4908B5097839B109494B6901B01D
:10313000014610B25DF804EB1847002300922321EA
:1031400046F2FF02FFF728FF08BD0000D80200206A
:103150003403002010B504460E48007848B109B188
:10316000012000E000200C49CA682146BDE810405B
:10317000104700294FF0060107D02046FFF795FFC2
:1031800007212046FFF791FF0F212046BDE81040A0
:10319000FFF78BBFD802002034030020264810B56B
:1031A0000078D0B3254C0122FA21002063689847AB
:1031B0000A2001F0C9FB01210846FFF749FF0A2058
:1031C00001F0C2FB636801220A21022098470A200D
:1031D00001F0BAFB636801220320114698470A20D8
:1031E00001F0B2FB636801220B204FF4FA519847BB
:1031F0000A2001F0A9FB636801220C2041F6583136
:1032000098470A2001F0A0FB01210846FFF7A2FF22
:10321000BDE810400A2001F097BB00210846FFF7E7
:10322000ADFE03210220FFF752FF0321BDE810404D
:103230000120FFF74CBF0000D8020020340300201B
:10324000014800F09BBF00002807002070470000E5
:10325000094BDA8E002A0DD0012901D0002104E0AB
:1032600030B15142987900B149420120FFF758BF6F
:103270001146F7E770470000F4020020002101200A
:10328000FFF74EBF01460120FFF764BF1CB50022C7
:10329000A02300928DF800308DF8011008218DF8E0
:1032A0000220019240F256328DF803006846FFF783
:1032B000CDFE1CBD10B528B121B1C9B20BF004FE82
:1032C000002010BD4FF0FF3010BD72B6FEE70000C9
:1032D000014801F047BD000090070020014801F0BF
:1032E00041BD000030080020F0B503684FF6FC71C6
:1032F0006D4C426BD3F884508D4345EA8205C3F888
:103300008450036853F8845F068F25F47F0545EAEF
:1033100006451D60836B654D9F180268D2F88830A2
:103320008B4343EA8703C2F88830026852F8883F2B
:10333000868F23F4FE0343EA06431360066856F8BB
:10334000A03FC26B8B4307EB420243EA8203336028
:10335000076857F8A03FB0F8406023F4FE0343EA43
:1033600006433B60D0E9103603FB06220368D3F81E
:10337000B0608E4346EA8206C3F8B0600368B0F8D6
:103380004860D3F8B07027F4FE0747EA0646C3F852
:10339000B060D0E91267036806FB0722D3F8AC607F
:1033A0008E4346EA8206C3F8AC60D0E9146703682E
:1033B00006FB0722D3F8F0608E4346EA8206C3F884
:1033C000F0600368B0F85860D3F8F07027F47C1709
:1033D00047EA0646C3F8F0600368876D53F8C06F8C
:1033E00002EB47028E4346EA820119600168B0F899
:1033F0005C20D1F8C03023F47C1343EA0242C1F8C8
:10340000C020016890F86020D1F8C03023F07C53D0
:1034100043EA0262C1F8C020416B04EB8101C1663E
:10342000826B01EB82020267C36B02EBC30242674D
:10343000D0E91034634302EB83028267D0E912348F
:10344000634302EB8302C267D0E91434634302EBA7
:103450008302C0F88020836D02EBC303C0F8843080
:10346000C46D826E544303EB8403C0F88830046E4D
:10347000544303EB8402C0F89020AA420AD9D0F842
:103480009C20032142F02002C0F89C2080F8981074
:103490000120F0BD002200E004C1D0F890308B4242
:1034A000FAD80020F0BD000000AC0040FCD3004082
:1034B000F0B58E680C69D1E9005744EA0604DFB123
:1034C00045F080452C43866ED1E906C54F695E43C1
:1034D00091F8203045EA0C05D0F884E00020D1F8BE
:1034E0000CC047EA0363114F1D430EEB860345EA08
:1034F0000C05E3E8024511E044EA8544E3E71418CB
:10350000155CA67894F803C094F801E0360445EA07
:103510000C6446EA0E252C43001D10C3CC6807EB53
:10352000144424788442EAD8F0BD0000D46C03909F
:10353000F0B5D1E90843CD690A68C2B102682543F4
:1035400022F4F84213431D430560D1E90125D1E976
:1035500003364C692A434568334389691A43EB0BA8
:103560002243DB030A431A4342600020F0BDD1E945
:10357000012ED1E9036CD1E9057142EA0E0246EA57
:103580000C0632433A430A4301682A4322431A4352
:103590006FF30E010A430260E7E700002DE9F04FE8
:1035A0008B8A6FF00F05264C4FF07F4BD1F80C90B3
:1035B00004EB03536FF0FF044FEA042A1AB3866842
:1035C0004FEA09321F4FA2F580521A433E40324360
:1035D0008260D1E900278E68521E05EB07150F8A1D
:1035E0002A43C56804EB06240E7E0AEB07432243F8
:1035F0001A430BEB06610A4305F070431A43C2609D
:103600000020BDE8F08F91E804110F4E521E0F8A82
:1036100005EB08152A4304EB0C2C06EB09350E7E4E
:1036200042EA0C022A4385680AEB074422431A4304
:103630000BEB06610A4305F070431A438260DFE733
:103640000000F0FFFF0F0FFF00F0FFFF2DE9F0413A
:1036500014460D46064616F06DFA194FB87816F066
:103660003FFA16F097FA300A16F03AFA16F092FA84
:10367000F0B216F035FA16F08DFA16F05BFAB8785B
:10368000401CC0B216F02CFA16F084FA0020401C40
:10369000C0B21E28FBD3661E002406E016F0FEF919
:1036A000285516F0AFF9641CE4B2B442F6DB16F00C
:1036B000F5F9285516F0DCF9BDE8F04116F054BADA
:1036C00094E600201048012110B5006826F02AF980
:1036D0000E4900280E480F4C0A7807D00E490068A2
:1036E00051F8221022F0A2FA012007E00A490068EE
:1036F000083951F8221022F099FA00206071BDE8D3
:103700001040FFF71BB80000EC0400203805002033
:10371000F0040020F4020020A4050020104801213C
:1037200010B5006826F0FEF80E4900280E480F4C30
:103730000A7807D00E49006851F8221022F076FA74
:10374000012007E00A490068083951F8221022F0E8
:103750006DFA0020A071BDE81040FEF7EFBF000039
:10376000E404002038050020E8040020F4020020D2
:10377000A40500202348012170B5006826F0D2F886
:10378000214D224E224CD8B10121084600F046FCC2
:1037900001202071A07840F00200A07020782978E4
:1037A000012801D01B4801E01A48183050F82110B8
:1037B000306822F03BFA207802281ED1012119E05E
:1037C000FFF75CFD0021012000F028FC00202071A3
:1037D00020782978012802D00E48083001E00D48F1
:1037E000103050F82110306822F020FA207802289A
:1037F00003D10021012000F085FBBDE87040FEF7F9
:103800009DBF00006C0400203805002070040020DB
:10381000F4020020200600201D48012170B5006838
:1038200026F080F81B4C1C4D1C4EA8B10121002035
:1038300000F0F4FB0120E070A07840F00100A070DF
:103840002978174850F82110306822F0EFF92078D5
:10385000022818D1012113E007F09EFE002108463E
:1038600000F0DCFB0020E0700D482978083050F8AB
:103870002110306822F0DAF92078022803D10021E3
:10388000002000F03FFBBDE87040FEF757BF00008E
:103890004C040020F40200203805002050040020D1
:1038A000100600201CB5002002210090FF228DF898
:1038B000001001238DF80120082101901A468DF88F
:1038C000020068468DF80430FFF7F4FC04480178E4
:1038D000103050F821000249183107F08DFD1CBD51
:1038E00038050020012010B5FFF7CCFC052001F0C1
:1038F0002BF80121BDE810400020FFF7A9BC0021F2
:10390000084610B5FFF7A4FC052001F01DF8BDE83E
:1039100010400020FFF7B6BC012010B5FFF7B2FC45
:10392000052001F011F80121BDE810400846FFF71D
:103930008FBC0021084610B5FFF78AFC052001F076
:1039400003F8BDE810400020FFF79CBC0548017853
:1039500029B100210170FEF7F1FE07F093FE01216D
:10396000F8E7000038050020FFF748F9BFF34F8F54
:103970000548064A016801F4E06111430160BFF3A4
:103980004F8F00BFFDE700000CED00E00400FA05DA
:103990002DE9F0411B4D1C481D4F1C4E697907F164
:1039A00008081C4C006800294FF0010117D023F0D3
:1039B000DFFC217858F82110306822F037F9A97916
:1039C0001548164D89B12278006858F8221022F067
:1039D0002DF928680121BDE8F04123F0C9BC24F08D
:1039E0002AF9207857F82010E6E72178006857F880
:1039F000211022F01BF928680121BDE8F04124F0D4
:103A00001AB90000F4020020EC040020F0040020A9
:103A10009C05002038050020E8040020E404002074
:103A20002DE9F041564C574D207855F82010564856
:103A3000006822F0FBF8207855F820105348006801
:103A400022F0F4F8217805F1380050F821105048A0
:103A5000006822F0EBF8217805F1400050F82110C1
:103A60004C48006822F0E2F8217805F1480050F84F
:103A700021104948006822F0D9F8217805F130007A
:103A800050F821104548006822F0D0F8217805F15F
:103A9000180050F821104248006822F0C7F8217839
:103AA00005F1080050F821103E48006822F0BEF8E9
:103AB0002078A5F170063C4D56F82010286822F0B9
:103AC000B5F8207856F82010384E306822F0AEF85D
:103AD0002C4F2078783F57F82010286822F0A6F85D
:103AE000207857F82010306822F0A0F8217807F1EC
:103AF00010002F4D50F82110286822F097F82178F7
:103B000007F1180050F82110286822F08FF821786A
:103B100007F1980050F821102648006822F086F836
:103B2000254D21782878012802D007F1A00001E076
:103B30001448103050F821102048006822F076F820
:103B400028782178012802D00E48583801E00D4825
:103B500040381B4E50F82110306822F067F8287862
:103B60002178012802D00748503801E0054848383C
:103B700050F821103068BDE8F04122F057B800003D
:103B80003805002078060020400400203C04002076
:103B90003004002034040020380400207C0400207D
:103BA000800400208C0400205C04002074040020A9
:103BB0005004002054040020F40200206804002077
:103BC0007004002010B51C4C04F12000217850F83E
:103BD00021101A48006822F029F8217804F1280001
:103BE00050F821101648006822F020F8217804F1DE
:103BF000300050F821101348006822F017F821789F
:103C000004F1400050F821100F48006822F00EF82F
:103C1000217804F1480050F821100C48006822F087
:103C200005F8217804F1380050F8211008480068A0
:103C3000BDE8104021F0FABF38050020A0040020A4
:103C4000A8040020B0040020C0040020C804002004
:103C5000D404002070B51E4C1E4D207855F820105D
:103C60001D48006821F0E2FF207855F820101B481D
:103C7000006821F0DBFF2078083D55F82010184837
:103C8000006821F0D3FF207855F82010154800680F
:103C900021F0CCFF2178A5F1280050F8211012481E
:103CA000006821F0C3FF2178A5F1080050F8211029
:103CB0000E48006821F0BAFF2178A5F1100050F8F5
:103CC00021100B480068BDE8704021F0AFBF000034
:103CD00038050020C40500200C050020F804002051
:103CE0001405002000050020DC040020E004002072
:103CF000180500200448012100220171C2700170E2
:103D0000FEF71CFD07F0BEFCF40200200448002171
:103D10000171C1700170FEF711FD07F0B3FC0000E6
:103D2000F40200200448002102220171C1700270D7
:103D3000FEF704FD07F0A6FCF40200200D48002267
:103D400010B50121006809F01CFD0B48002201217B
:103D5000006809F016FD094800220121006809F0F9
:103D600010FD0748012211460068BDE8104009F027
:103D700008BD00008404002030040020340400202A
:103D80003804002070B52D4C4FF49D71206827F049
:103D9000F3FA2068702126F0D9FF2068042127F06B
:103DA00019FB274C6FF0A701206827F0FCFA206868
:103DB000052127F00FFB234C6FF08101206827F0CD
:103DC000F2FA214D2148297850F82110206821F07D
:103DD0002DFF1E482978583850F821101C480068DB
:103DE00021F024FF1B4800220121006809F0C9FCD2
:103DF000194800220121006809F0C3FC174800227D
:103E00000121006809F0BDFC15480022012100686D
:103E100009F0B7FC134800220121006809F0B1FC49
:103E2000114800220121006809F0ABFC0F48012273
:103E300011460068BDE8704009F0A3BC6004002092
:103E40004004002068040020380500208806002077
:103E5000700400203C04002048040020900400204E
:103E600084040020300400203804002034040020A2
:103E700010B51D4C7821206827F07EFA2068442177
:103E800026F064FF20686FF0810127F08CFA174C50
:103E90007821206827F070FA2068442126F056FF28
:103EA0002068642127F07FFA114800220121006870
:103EB00009F067FC0F4800220121006809F061FC4D
:103EC0000D4800220121006809F05BFC0B4800222C
:103ED0000121006809F055FC094800220121006811
:103EE000BDE8104009F04DBC080500201005002079
:103EF000E004002018050020EC040020FC04002051
:103F0000F404002038B101280BD1064801290068CB
:103F100003D0012202E00448F8E70022802109F0E2
:103F200058BC70474C0400206C0400201CB50021D4
:103F300002200091FF228DF8000001918DF80120F0
:103F400001228DF8021008218DF804006846FFF761
:103F5000B1F905480178083050F8210002491831BC
:103F600007F04AFA1CBD000038050020012010B5FA
:103F700007F016FB052000F0E7FC0121BDE810402A
:103F8000002007F0F3BA0021084610B507F0EEFA5A
:103F9000052000F0D9FCBDE81040002007F000BB70
:103FA000012010B507F0FCFA052000F0CDFC01213E
:103FB000BDE81040084607F0D9BA0021084610B500
:103FC00007F0D4FA052000F0BFFCBDE81040002047
:103FD00007F0E6BA0E4870B50E4D0F4C417941B16D
:103FE000002141710846FFF74DF90948297834301E
:103FF00007E0012141710846FFF744F90448297898
:104000003C3050F821102068BDE8704021F00EBE11
:10401000CC050020380500207404002010B50C46A3
:1040200048B1012819D10E480CA1006821F0FEFD0D
:1040300074B101200DE00B4808A1006821F0F6FDE5
:104040000CB1012000E00020BDE8104007F0A8BA44
:104050000020BDE81040FFF715B910BD00000000BA
:1040600064040020580400200E4A0F490F4810B580
:1040700013790978006843B100231371343252F880
:10408000211021F0D3FD002008E001231371054A1F
:104090003C3252F8211021F0C9FD0120BDE810404A
:1040A00007F07EBACC050020380500205C04002013
:1040B00070470000F0B590F86020012A22D0C1EBD3
:1040C000C102012780F86070022380F8613000EBA4
:1040D0008202284D138F168EB2F83CC0D46A1B059D
:1040E000283244EA064643EA4C530A2C46EA0306C1
:1040F0000AD0092C08D0137B46EA036349B10B2C84
:104100001AD01DE00220F0BDD36803F07F43334393
:10411000F4E701684C6AAC431C434C6201681368C5
:104120008B6151680A2901D009291BD1D168026825
:1041300021F07F41916215E0118B0F4D43EA8143DD
:104140000168CC69AC431C43CC61016813680B6106
:1041500051680A2901D0092904D1D168026821F0E7
:104160007F411162002180F8617080F8601008467C
:10417000F0BD00000F0033FF0F003FFF2DE9F047B7
:104180000446006800274FF004084FF00109466814
:104190000568F10714D0E90512D5036823F480738C
:1041A0000360606E40F0010060662068C0F808900F
:1041B00084F8618084F86070616A09B1204688479C
:1041C000B00615D5A80413D520682022036823F46F
:1041D0000053036020688260606E40F002006066F9
:1041E00084F8618084F86070616A09B1204688476C
:1041F000300715D5280513D520680822036823F455
:104200000063036020688260606E40F004006066B6
:1042100084F8618084F86070616A09B1204688473B
:1042200070070CD568050AD52068026822F4806200
:1042300002602068C0F80880204600F071F8B007DE
:1042400013D5A80511D520680222036823F4007352
:10425000036020688260606E606684F8619084F814
:104260006070216A09B120468847F00612D5E8043B
:1042700010D52068016821F4805101602268102166
:104280009160616E616684F86190204684F8607088
:10429000FFF70EFFBDE8F0872DE9F041040004D0E0
:1042A00094F86100002518B107E00120BDE8F08115
:1042B000204684F8605000F035F8184E022084F84B
:1042C00061000123D4E90010D4F81CC040F20712A9
:1042D0000F6840EA0C003740384308602068A7693F
:1042E000A168466B39439643314341632068E268D5
:1042F000016C6FF30F01114301642068218AA28AC7
:10430000466B090541EA425126F4401211434163CC
:10431000656684F861300020C8E70000BFFFF8FF41
:104320007047000008B500680B49884212D10B485D
:10433000016841F01001016000680022092100F0CD
:10434000100000905A2001F0F7FCBDE808405A2008
:1043500001F0E4BC08BD000000100052D444025833
:104360002DE9F84F044601F043FA00903CB194F86F
:104370003500022806D0802161650020E4E001209C
:10438000BDE8F88FC74DC74EC6491835206830368E
:10439000DFF81483DFF814938842DFF814A3DFF802
:1043A00014B32ED0A8422CD0B0422AD0404528D0F9
:1043B000484526D0504524D0584522D0BD4A183211
:1043C00090421ED0BC4A90421BD0BB4A1832904249
:1043D00017D0B94A3032904213D0B74A483290428F
:1043E0000FD0B54A603290420BD0B34A7832904237
:1043F00007D0B14A9032904203D0AF4AA8329042DF
:1044000009D1026822F01E0202602068426922F08F
:104410008002426103E0026822F00E020260276817
:104420008F4238464DD0A8424BD0B04249D040458B
:1044300047D0484545D0504543D0584541D09D4A86
:10444000183290423DD09C4A90423AD09A4A183253
:10445000904236D0984A3032904232D0964A483212
:1044600090422ED0944A603290422AD0924A7832BA
:10447000904226D0904A9032904222D08E4AA83262
:1044800090421ED08D4A90421BD08C4A14329042EA
:1044900017D08A4A2832904213D0884A3C32904240
:1044A0000FD0864A503290420BD0844A64329042F8
:1044B00007D0824A7832904203D0804A8C329742A9
:1044C00004D1206E026822F480720260754920686F
:1044D000884228D0A84226D0B04224D0404522D0DD
:1044E000484520D050451ED058451CD07149183140
:1044F000884218D07049884215D06F4918318842D7
:1045000011D06D49303188420DD06B494831884215
:1045100009D069496031884205D0674978318842BD
:1045200001D065499031016821F0010101600EE080
:1045300001F05EF90099401A052808D92022626529
:104540000321002084F8351084F8340017E7386818
:10455000C007EDD1534A0121206890422ED0A842D5
:104560002CD0B0422AD0404528D0484526D05045CE
:1045700024D0584522D04F4B183398421ED04E4B72
:1045800098421BD04C4B1833984217D04A4B3033CB
:10459000984213D0484B483398420FD0464B603373
:1045A00098420BD0444B7833984207D0424B90331B
:1045B000984203D0404BA833984208D194F85C70DD
:1045C0003F23A06D07F01F07BB40836007E094F80E
:1045D0005C30A06D03F01F0301FA03F34360206811
:1045E00090424DD0A8424BD0B04249D0404547D030
:1045F000484545D0504543D0584541D02D4A183202
:1046000090423DD02C4A90423AD02B4A18329042E8
:1046100036D0294A3032904232D0274A483290422E
:104620002ED0254A603290422AD0234A78329042D6
:1046300026D0214A9032904222D01F4AA83290427E
:104640001ED01E4A90421BD01C4A1432904217D0F2
:104650001A4A2832904213D0184A3C3290420FD066
:10466000164A503290420BD0144A6432904207D01E
:10467000124A7832904203D0104A8C3290420BD1C9
:10468000D4E919024260E06E30B1026822F480720F
:104690000260D4E91C024260002084F8351084F8DE
:1046A00034006DE6100002405800024070000240E5
:1046B00088000240A0000240100402400854025842
:1046C0002DE9F05F28B190F83510022904D080213F
:1046D00041650120BDE8F09F904C904B0168183C6B
:1046E00018338E4ADFF83C92A1428D4CDFF838E255
:1046F0008E4FDFF83CB2DFF83CA28F4D8F4E31D0A9
:1047000091422FD099422DD0A1422BD0494529D09A
:10471000714527D0B94225D0DFF810C20CF1180C32
:1047200061451FD0DFF808C2ACF1600C614519D0BB
:10473000DFF8FCC1ACF1480C614513D0DFF8F0C1E3
:10474000ACF1300C61450DD0DFF8E4C1ACF1180CD0
:10475000614507D0594505D0514503D0A94201D044
:10476000B1422CD1DFF8B4C14FF0040880F8358095
:10477000ACF1180C61451DD091421BD0994219D063
:10478000A14217D0494515D0714513D0B94211D077
:104790006648183081420DD065486038814209D0A2
:1047A00063484838814205D061483038814201D0A1
:1047B0005F481838086820F001000860ABE0D1F8C5
:1047C00000C02CF00E08DFF854C1C1F80080ACF135
:1047D000180C0168614527D0914225D0994223D019
:1047E000A14221D049451FD071451DD0B9421BD0EF
:1047F000DFF838C10CF1180C614515D0DFF830C175
:10480000ACF1600C61450FD0DFF824C1ACF1480C6D
:10481000614509D0DFF818C1ACF1300C614503D017
:10482000DFF80CC1ACF1180CD1F800C02CF0010C71
:10483000C1F800C0DFF8E4804FF0010C0168A8F176
:104840001808414546D0914244D0994242D0A142F5
:1048500040D049453ED071453CD0B9423AD0334A68
:104860001832914236D0324A603A914232D0304AC0
:10487000483A91422ED02E4A303A91422AD02C4AC0
:10488000183A914226D0594524D0514522D0A94208
:1048900020D0B1421ED02A4A91421BD0284A14325D
:1048A000914217D0264A2832914213D0244A3C32F2
:1048B00091420FD0224A503291420BD0204A6432AA
:1048C000914207D01E4A7832914203D01C4A8C3262
:1048D000914218D1016E0A6822F480720A6090F841
:1048E0005C20816D02F01F020CFA02F24A60D0E9EE
:1048F00019124A60C16E31B10A6822F480720A60EE
:10490000D0E91C124A600022016D80F835C080F8A1
:10491000342001B188470020DCE600002800024076
:10492000580002407000024088000240A00002408F
:104930007004024088040240A0040240B80402400F
:1049400008540258406D704770B5044600F050FF9F
:104950000546601C02D004480078044400F048FF7B
:10496000401BA042FAD370BD1800002010B590F88B
:104970009830012B09D0022B07D0D0F89C1041F0C1
:104980000201C0F89C10012010BD03689C6D0C4210
:1049900003D1DC6D44F0010404E09C6D31EA0404B1
:1049A0001FD00324DC658B0505D50368D3F8E040F0
:1049B0001443C3F8E0404B0505D50368D3F8E44041
:1049C0001443C3F8E4400068084A01EA0203446D56
:1049D000074A1C434465106840EA9170106000204B
:1049E00010BDDC6D44F00204DCE70000FFFFCF3FA8
:1049F00014A8004070B5044690F89800022804D02E
:104A0000D4F89C0040F008000DE02068D0F8C030D9
:104A100013F07C5F0BD0D0F8C4309B020CD5D4F8D7
:104A20009C0040F40070C4F89C00012070BDD4F8D4
:104A30009C0040F02000F6E7D0F8C400C0F3044525
:104A400020462B46FEF734FD21680120A840C1F81E
:104A5000D000C4F89400002070BD704790F89830E2
:104A6000012B07D0D0F89C1041F00401C0F89C1035
:104A70000120704761B10068012913D0D0F8B0104F
:104A800021F0FE4141EA0261C0F8B01000207047F9
:104A90000068D0F8F01021F07C5141EA0261C0F8C2
:104AA000F010F3E7D0F8A01021F0FE4141EA0261D6
:104AB000C0F8A010EAE770B590F89820012A09D054
:104AC000022A07D0D0F89C1041F00201C0F89C10D7
:104AD000012070BD0B68CA6883B10B69072A43EADD
:104AE000427325D00C7A4A6942EA84724968006FA1
:104AF00000EBC100C0E90032002070BD072A0DD0D4
:104B00000C7AD6060D8A4B6943EA847246EA05435D
:104B1000C06E49681A4340F82120EDE70B8A4FF038
:104B20006055D1E9062442EA034245EA0423EFE74F
:104B30008A69DBE730B590F89850039C012D07D0C7
:104B4000D0F89C1041F00401C0F89C10012030BD49
:104B50000D01016845EA820040EA43002043C1F8A4
:104B60008000002030BD000010B504460948844292
:104B700004D1D4F89C1008A0FBF7AEFC0A4884428C
:104B800006D1D4F89C1009A0BDE81040FBF7A4BCE6
:104B900010BD00009007002063616E315F65657293
:104BA0003A25640A000000003008002063616E327C
:104BB0005F6565723A25640A0000000070470000D6
:104BC000F0B590F898400025022C04D0D0F89C1045
:104BD00041F008012BE040294FF0004605D0412963
:104BE00029D0046D8C4219D942E00468D4F8A07031
:104BF00017F4FE0F12D0D4F8A4707F0613D0D4F8A7
:104C0000A470FF0105D5D4F8A070B6EBD77F00D112
:104C10000125D4F8A470466F446C24E0D0F89C10B1
:104C200041F0200103E0D0F89C1041F48071C0F8FD
:104C30009C100120F0BD0468D4F8B07017F4FE0F8A
:104C4000ECD0D4F8B4707F06EDD0D4F8B470FF0186
:104C500005D5D4F8B070B6EBD77F00D10125D4F8D4
:104C6000B470866FC46CC7F305273D446C4302E003
:104C7000446DC66F4C4306EB8404266816F08046EC
:104C80005660266836D026F060461660D4F800C01C
:104C900000262F4F0CF0005CC2F808C0D4F800C00A
:104CA0000CF0004CC2F810C0B4F804C01FFA8CFC21
:104CB000C2F81CC0D4F804C00CF4702CC2F80CC0AC
:104CC000D4F804C00CF4801CC2F814C0D4F804C09A
:104CD0000CF4001CC2F818C0D4F804C0CCF3066C65
:104CE000C2F820C0D4F804C008344FEADC7CC2F813
:104CF00024C008E0C6F38A46C7E700BF14F806C020
:104D000003F806C0761CD2F80CC007EB1C4C9CF8CC
:104D100000C0B445F2D840290AD041290CD020293E
:104D20004FF001020CD200688A40C0F898200DE0D4
:104D30000068C0F8A85009E00068C0F8B85005E065
:104D4000006801F01F018A40C0F89C200020F0BDDF
:104D5000D46C03900068D0F8C40000F03F007047A6
:104D6000704700002DE9FF5FDFF80CB304460BF13C
:104D70000401DBF8000025680F68AA468007D5F813
:104D80005090696DD5F850806E6D2A6DD5F854C07D
:104D90002B6D00EA8770009009F470496F6D286DE3
:104DA00001EA09010191DAF85410DAF85490DAF8BE
:104DB000505008F00F0806EA0806029602F0F002CA
:104DC00003F071536FEA09061F4000F060700CEAAF
:104DD000020CCDF80CC0F20501EA00090CD4E8433E
:104DE000C00509D400214FF48073CAF85030CBF8C5
:104DF00000102046FFF7B4FF700512D4E8434005C9
:104E00000FD4206800234FF48068D0F8DC20D0F85D
:104E1000E410C0F85080CBF800301140204600F07C
:104E20003DFBDFF858A2009850B12268830F00EADA
:104E30000A001065CBF8003020460099FFF70DFE00
:104E4000019850B12268830F00EA0A001065CBF880
:104E500000302046019900F023FB029850B12268EF
:104E6000830F00EA0A001065CBF800302046029953
:104E700000F0BAFA039850B12268830F00EA0A00E2
:104E80001065CBF800302046039900F0E7FA3005B2
:104E90000CD4E843000509D4236800204FF40062D5
:104EA0001A65CBF80000204600F0FBFAB00512D4DA
:104EB000E84380050FD4206800234FF40078D0F831
:104EC000D820D0F8E010C0F85080CBF80030114066
:104ED000204600F0E4FA30030CD4E843000309D480
:104EE000236800204FF400221A65CBF8000020460A
:104EF00000F078FAF0030CD4E843C00309D4236827
:104F000000204FF480321A65CBF80000204600F0F4
:104F1000C4FA70030CD4E843400309D4226800208B
:104F20004FF480231365CBF80000204600F0B4FA5C
:104F3000B0030FD4E84380030CD4236800204FF45F
:104F400000321A65CBF80000D4F89C0040F08000D5
:104F5000C4F89C00B9F1000F0BD022684FEA997396
:104F600009EA0A001065CBF8003049462046FFF7F1
:104F700025FE5FB12268BB0F07EA0A001065CBF877
:104F80000030D4F89C003843C4F89C003C492068A9
:104F9000884268D1606881468068800763D0D9F80C
:104FA0002060D9F82410D9F82080D9F82400D9F845
:104FB00020C0D9F82470D9F82030D9F82450D9F875
:104FC000202003F4FC4306F00F0AD9F824601D40AA
:104FD000D9F824B008F030080CF4C07C02F4F022B8
:104FE00011EA0A0100EA080807EA0C0706EA0206C5
:104FF000D9F820A004D0C9F82010204600F049FAC2
:10500000B8F1000005D0616808624146204600F012
:1050100042FA6FEA0B0040060ED46FEA0A0040061F
:105020000AD460684021C36BC26B01622046190C30
:1050300002F03F0200F02EFA2FB160680762394695
:10504000204600F025FA35B160680562D4F89C006E
:105050002843C4F89C0036B160680662D4F89C000E
:105060003043C4F89C00D4F89C00002802D02046AD
:10507000FFF77AFDBDE8FF9F10A80040FFFFCF3F7C
:1050800000A000402DE9F04194B08D494C22044627
:105090006846FBF744FC64B18A4D2068A84202D1FF
:1050A00000F58070606094F898004FF0000820B11F
:1050B00008E0012014B0BDE8F081204684F8998012
:1050C00000F002F92068816921F01001816100F08F
:1050D0008FFB0327064604E000F08AFB801B0A28AA
:1050E00011D8206880690007F6D42068816941F0F2
:1050F0000101816100F07CFB06460DE000F078FBC9
:10510000801B0A2808D9D4F89C0040F00100C4F89C
:105110009C0084F89870CCE720688069C007EDD0C7
:105120002068816941F002018161207C01282068AA
:10513000816937D041F040018161607C012820689D
:10514000816932D021F480418161A07C01282068EE
:1051500081692DD041F4805181612068A268816904
:1051600021F44071114381612068816921F0A4011B
:1051700081612068016921F010010161E068012866
:1051800019D010B302281BD02068816941F080013A
:1051900081612068016941F010010161E068032824
:1051A0000ED012E021F04001C6E741F48041CBE788
:1051B00021F48051D0E72068816941F0040103E0C7
:1051C0002068816941F020018161207E6FF0FF023B
:1051D000D4E90773A68A1102400602EB0727A0F163
:1051E0000070384327685B1E184301EB06463043C6
:1051F000F861A068B0F5407F11D104F12800A68CB9
:105200006FF00F0C89C801EB0641401E02EB032230
:10521000104322680CEB071318430843D060206E3C
:1052200030B12068626ED0F8C0101143C0F8C010D1
:10523000D4E917126846D14209D02168A36E51F80B
:10524000C82F50F8233022F007021A430A60216C5D
:1052500049B12168626C51F8BC3F50F8226023F0DC
:10526000070232430A60A16C51B12168E36C51F826
:10527000BC2F50F8233022F0700242EA03120A6079
:10528000216D51B12168626D51F8BC3F50F8220088
:1052900023F4E06242EA002008602068A84204D1BA
:1052A0006068816821F003018160C4F89480012165
:1052B000C4F89C8084F898102046FEF715F8F9E6AB
:1052C000E46C039000A000402DE9F043B5B08046A7
:1052D00014212FA8FBF77FFBBC216846FBF77BFB63
:1052E0003B4D4FF40041D8F800000026394B4A03EB
:1052F000364F0C3D364C98424FF002084FF00909EA
:105300002ED168461B92009100F0C8FE08B1FDF74F
:10531000DCFF3868401C3860012807D1206840F461
:1053200080702060206800F480703490286840F01D
:105330000100286028684FF4C052CDE9308600F0A3
:1053400001002F9232962FA9CDE93390224800F028
:1053500021F900221320114600F0EEFC132030E06A
:105360001E4B98422FD168461B92009100F096FE8A
:1053700008B1FDF7AAFF3868401C3860012807D142
:10538000206840F480702060206800F480703490C1
:10539000286840F00200286028684FF44052CDE9A8
:1053A000308600F002002F9232962FA9CDE933907B
:1053B0000B4800F0EFF800221420114600F0BCFC6E
:1053C000142000F0ABFC35B0BDE8F0830C000020E9
:1053D000EC44025800A000400000025800A4004025
:1053E000000402587047000030B50546194897B0D0
:1053F0000C46854213D1A00711D540216A4614AB53
:105400002846FFF7DDFB002228460221FFF7AEFA0F
:10541000019820B914AA69462846FDF747FD0E48B1
:10542000854214D1A00712D54021284614AB0AAA00
:10543000FFF7C6FB002228460221FFF797FA0B98D8
:10544000002804D114AA28460AA9FDF72FFD17B099
:1054500030BD00009007002030080020704790F811
:105460009810012907D0D0F89C1041F00401C0F831
:105470009C1001207047022180F8981000220168DA
:105480008B6923F001038B61C0F89C2010467047A4
:105490007047704770477047704770477047704754
:1054A00070477047F0B5B5B014216846FBF793FA22
:1054B0003048016800295BD101210160BC2105A8A9
:1054C000FBF789FA4FF0807005900024169405A828
:1054D00000F0E4FD08B1FDF7F8FE2748016841F44B
:1054E00080510160006802260327694600F480505D
:1054F00034904FF63F00CDE9000620480C25CDE959
:105500000247049500F046F81D486946CDE900566B
:10551000CDE90247049500F03DF880206946CDE9C9
:1055200000061848CDE90247049500F033F848F228
:1055300037106946CDE900061348CDE902470495C6
:1055400000F028F84FF683706946CDE900060F4851
:10555000CDE90247049500F01DF84CF2037069464E
:10556000CDE900060A48CDE90247049500F012F89B
:1055700035B0F0BD10000020D44402580014025889
:105580000008025800000258001802580010025883
:10559000000C02582DE9F84F03247D4D00234FF0F5
:1055A00001094FF0B04B4FF00F0AE9E009FA03F799
:1055B0003A4076D00E7906F00306012E01D0022E75
:1055C00018D1D0F808C04FEA430ECE6804FA0EF89E
:1055D0002CEA080C06FA0EF646EA0C068660D0F8AD
:1055E00004C00E792CEA070CC6F300169E4046EA6A
:1055F0000C0646600E79F643B6070BD0C6684FEA34
:1056000043088F6804FA08FC26EA0C0607FA08F734
:105610003743C7600E7906F00306022E12D1DE086A
:105620000F694FEA437C00EB8606B646366A4FEABE
:10563000DC6C0AFA0CF807FA0CF726EA080637437E
:10564000CEF820700F7906684FEA430807F0030789
:1056500004FA08FC07FA08F726EA0C063743076045
:105660004E6816F4403F1CD04A4E376847F0020798
:10567000376036689F0706F00206009623F003069F
:1056800006F1B046B6463F0FD6F80864DFF8088149
:105690000AFA07FC404526EA0C0603D14FF0000C3D
:1056A00041E06CE0DFF8F4C0604502D14FF0010C3E
:1056B00039E0DFF8ECC0604502D14FF0020C32E077
:1056C000DFF8E0C0604502D14FF0030C2BE0DFF8BB
:1056D000D8C0604502D14FF0040C24E0DFF8CCC004
:1056E000604502D14FF0050C1DE0DFF8C4C06045F5
:1056F00002D14FF0060C16E0DFF8B8C0604502D1C9
:105700004FF0070C0FE0DFF8B0C0604502D14FF05A
:10571000080C08E0DFF8A4C0604502D14FF0090C86
:1057200001E04FF00A0C0CFA07FC4CEA060CCEF82C
:1057300008C44F68DBF80060FF0226EA020600D5C5
:1057400016435F46CBF80060D1F804C0DBF8046074
:105750005FEA8C2C26EA020600D516437E606E684E
:105760004F6826EA0206BF0300D516436E602E6816
:105770004F6826EA0206FF0300D516432E605B1C25
:105780000A6832FA03F67FF411AFBDE8F88F000023
:1057900080000058F44402580000025800040258E7
:1057A00000080258000C0258001002580014025859
:1057B00000180258001C0258002002580024025809
:1057C0000069084000D001207047426921EA0203C5
:1057D0000A4043EA0241816170470AB18161704722
:1057E0000904FBE701480068000C70470010005CEA
:1057F000014880687047000018000020074908B57C
:105800000A6842F002020A60096801F00201009190
:1058100003490A6802430A6008BD0000F4440258C4
:10582000040400580248816802781144816070477E
:1058300018000020032010B500F09EFA01F00CFAC9
:105840000F4A104914681368C4F3032203F00F03CE
:105850008A5CC95C02F01F0201F01F01D0400A4AB5
:1058600020FA01F11160094908600F2000F010F8DA
:1058700008B1012010BD00F043FA002010BD000067
:1058800018440258586D039028000020240000207E
:1058900070B50D4D04462878A0B14FF47A71B1FB74
:1058A000F0F00A490968B1FBF0F002F031F848B9AC
:1058B000102C07D200222146501E00F03DFA002095
:1058C0006C6070BD012070BD180000202400002015
:1058D0002DE9F041044690F8A00016460F46012835
:1058E0001DD0012584F8A050022084F8A10006EB09
:1058F000860000EBC600342204EB80003830FBF752
:105900000EF832463946204602F0DAFF21680020C0
:105910004D6284F8A15084F8A000BDE8F081022017
:10592000FBE770472DE9F0410446006800274FF07F
:105930000408856B466B690715D5710713D5426B53
:1059400022F0040242632068C0F83C80D4F8A4002E
:1059500040F00100C4F8A40084F8A180204684F837
:10596000A070FFF7DEFFA80716D5B00714D5206892
:105970000222436B23F0020343632068C263D4F81E
:10598000A40040F00200C4F8A40084F8A1802046DE
:1059900084F8A070FFF7C5FF05EA06004FF0010884
:1059A000C0070ED021684A6B22F001024A632168C9
:1059B000C1F83C8084F8A180204684F8A07000F0F3
:1059C00091F8280710D530070ED520680822436BC0
:1059D00023F0080343632068C26384F8A180204653
:1059E00084F8A07000F064F9BDE8F0812DE9F04181
:1059F000040004D094F8A100002518B107E00120AC
:105A0000BDE8F081204684F8A05000F06DF83448DD
:105A1000022184F8A110012202CC8B6923F070438B
:105A20008B6194E84A001943E3681E4354F8043D2F
:105A300031439E693143996121688B6803408B60D3
:105A40002168A68AA7698B683B4343EA06438B60BB
:105A50002168CB680340CB602168A38B276ACE689E
:105A60003E4346EA0346CE6021680B6903400B6162
:105A70002368A68CA76A1969394341EA064119616E
:105A800021684B6903404B612068A38D266B4169F7
:105A9000314341EA03414161236894F8351094F899
:105AA0003600DE6A000406F07F46DE62236840EAC4
:105AB000012094F83460D96A31430143D9622068E7
:105AC000416B41F0060141632068816941F00101A9
:105AD0008161C4F8A45084F8A120002090E7000060
